{
  "_format": "hh-sol-artifact-1",
  "contractName": "NFTCollection",
  "sourceName": "contracts/NFTcollection.sol",
  "abi": [
    {
      "inputs": [
        {
          "internalType": "address",
          "name": "_fxPortal",
          "type": "address"
        }
      ],
      "stateMutability": "nonpayable",
      "type": "constructor"
    },
    {
      "inputs": [
        {
          "internalType": "address",
          "name": "sender",
          "type": "address"
        },
        {
          "internalType": "uint256",
          "name": "tokenId",
          "type": "uint256"
        },
        {
          "internalType": "address",
          "name": "owner",
          "type": "address"
        }
      ],
      "name": "ERC721IncorrectOwner",
      "type": "error"
    },
    {
      "inputs": [
        {
          "internalType": "address",
          "name": "operator",
          "type": "address"
        },
        {
          "internalType": "uint256",
          "name": "tokenId",
          "type": "uint256"
        }
      ],
      "name": "ERC721InsufficientApproval",
      "type": "error"
    },
    {
      "inputs": [
        {
          "internalType": "address",
          "name": "approver",
          "type": "address"
        }
      ],
      "name": "ERC721InvalidApprover",
      "type": "error"
    },
    {
      "inputs": [
        {
          "internalType": "address",
          "name": "operator",
          "type": "address"
        }
      ],
      "name": "ERC721InvalidOperator",
      "type": "error"
    },
    {
      "inputs": [
        {
          "internalType": "address",
          "name": "owner",
          "type": "address"
        }
      ],
      "name": "ERC721InvalidOwner",
      "type": "error"
    },
    {
      "inputs": [
        {
          "internalType": "address",
          "name": "receiver",
          "type": "address"
        }
      ],
      "name": "ERC721InvalidReceiver",
      "type": "error"
    },
    {
      "inputs": [
        {
          "internalType": "address",
          "name": "sender",
          "type": "address"
        }
      ],
      "name": "ERC721InvalidSender",
      "type": "error"
    },
    {
      "inputs": [
        {
          "internalType": "uint256",
          "name": "tokenId",
          "type": "uint256"
        }
      ],
      "name": "ERC721NonexistentToken",
      "type": "error"
    },
    {
      "inputs": [
        {
          "internalType": "address",
          "name": "owner",
          "type": "address"
        }
      ],
      "name": "OwnableInvalidOwner",
      "type": "error"
    },
    {
      "inputs": [
        {
          "internalType": "address",
          "name": "account",
          "type": "address"
        }
      ],
      "name": "OwnableUnauthorizedAccount",
      "type": "error"
    },
    {
      "anonymous": false,
      "inputs": [
        {
          "indexed": true,
          "internalType": "address",
          "name": "owner",
          "type": "address"
        },
        {
          "indexed": true,
          "internalType": "address",
          "name": "approved",
          "type": "address"
        },
        {
          "indexed": true,
          "internalType": "uint256",
          "name": "tokenId",
          "type": "uint256"
        }
      ],
      "name": "Approval",
      "type": "event"
    },
    {
      "anonymous": false,
      "inputs": [
        {
          "indexed": true,
          "internalType": "address",
          "name": "owner",
          "type": "address"
        },
        {
          "indexed": true,
          "internalType": "address",
          "name": "operator",
          "type": "address"
        },
        {
          "indexed": false,
          "internalType": "bool",
          "name": "approved",
          "type": "bool"
        }
      ],
      "name": "ApprovalForAll",
      "type": "event"
    },
    {
      "anonymous": false,
      "inputs": [
        {
          "indexed": false,
          "internalType": "uint256",
          "name": "_fromTokenId",
          "type": "uint256"
        },
        {
          "indexed": false,
          "internalType": "uint256",
          "name": "_toTokenId",
          "type": "uint256"
        }
      ],
      "name": "BatchMetadataUpdate",
      "type": "event"
    },
    {
      "anonymous": false,
      "inputs": [
        {
          "indexed": false,
          "internalType": "uint256",
          "name": "_tokenId",
          "type": "uint256"
        }
      ],
      "name": "MetadataUpdate",
      "type": "event"
    },
    {
      "anonymous": false,
      "inputs": [
        {
          "indexed": true,
          "internalType": "uint256",
          "name": "tokenId",
          "type": "uint256"
        },
        {
          "indexed": true,
          "internalType": "address",
          "name": "depositor",
          "type": "address"
        }
      ],
      "name": "NFTDeposited",
      "type": "event"
    },
    {
      "anonymous": false,
      "inputs": [
        {
          "indexed": true,
          "internalType": "uint256",
          "name": "tokenId",
          "type": "uint256"
        },
        {
          "indexed": true,
          "internalType": "address",
          "name": "owner",
          "type": "address"
        },
        {
          "indexed": false,
          "internalType": "string",
          "name": "tokenURI",
          "type": "string"
        },
        {
          "indexed": false,
          "internalType": "string",
          "name": "prompt",
          "type": "string"
        }
      ],
      "name": "NFTMinted",
      "type": "event"
    },
    {
      "anonymous": false,
      "inputs": [
        {
          "indexed": true,
          "internalType": "address",
          "name": "previousOwner",
          "type": "address"
        },
        {
          "indexed": true,
          "internalType": "address",
          "name": "newOwner",
          "type": "address"
        }
      ],
      "name": "OwnershipTransferred",
      "type": "event"
    },
    {
      "anonymous": false,
      "inputs": [
        {
          "indexed": true,
          "internalType": "address",
          "name": "from",
          "type": "address"
        },
        {
          "indexed": true,
          "internalType": "address",
          "name": "to",
          "type": "address"
        },
        {
          "indexed": true,
          "internalType": "uint256",
          "name": "tokenId",
          "type": "uint256"
        }
      ],
      "name": "Transfer",
      "type": "event"
    },
    {
      "inputs": [
        {
          "internalType": "address",
          "name": "to",
          "type": "address"
        },
        {
          "internalType": "uint256",
          "name": "tokenId",
          "type": "uint256"
        }
      ],
      "name": "approve",
      "outputs": [],
      "stateMutability": "nonpayable",
      "type": "function"
    },
    {
      "inputs": [
        {
          "internalType": "uint256",
          "name": "tokenId",
          "type": "uint256"
        }
      ],
      "name": "approveFxPortal",
      "outputs": [],
      "stateMutability": "nonpayable",
      "type": "function"
    },
    {
      "inputs": [
        {
          "internalType": "address",
          "name": "owner",
          "type": "address"
        }
      ],
      "name": "balanceOf",
      "outputs": [
        {
          "internalType": "uint256",
          "name": "",
          "type": "uint256"
        }
      ],
      "stateMutability": "view",
      "type": "function"
    },
    {
      "inputs": [
        {
          "internalType": "uint256",
          "name": "tokenId",
          "type": "uint256"
        }
      ],
      "name": "depositToPolygon",
      "outputs": [],
      "stateMutability": "nonpayable",
      "type": "function"
    },
    {
      "inputs": [],
      "name": "fetchAllNFTs",
      "outputs": [
        {
          "internalType": "string[]",
          "name": "prompts",
          "type": "string[]"
        },
        {
          "internalType": "string[]",
          "name": "uris",
          "type": "string[]"
        }
      ],
      "stateMutability": "view",
      "type": "function"
    },
    {
      "inputs": [],
      "name": "fxPortal",
      "outputs": [
        {
          "internalType": "contract FxPortal",
          "name": "",
          "type": "address"
        }
      ],
      "stateMutability": "view",
      "type": "function"
    },
    {
      "inputs": [
        {
          "internalType": "uint256",
          "name": "tokenId",
          "type": "uint256"
        }
      ],
      "name": "getApproved",
      "outputs": [
        {
          "internalType": "address",
          "name": "",
          "type": "address"
        }
      ],
      "stateMutability": "view",
      "type": "function"
    },
    {
      "inputs": [
        {
          "internalType": "uint256",
          "name": "tokenId",
          "type": "uint256"
        }
      ],
      "name": "getTokenPrompt",
      "outputs": [
        {
          "internalType": "string",
          "name": "",
          "type": "string"
        }
      ],
      "stateMutability": "view",
      "type": "function"
    },
    {
      "inputs": [
        {
          "internalType": "address",
          "name": "owner",
          "type": "address"
        },
        {
          "internalType": "address",
          "name": "operator",
          "type": "address"
        }
      ],
      "name": "isApprovedForAll",
      "outputs": [
        {
          "internalType": "bool",
          "name": "",
          "type": "bool"
        }
      ],
      "stateMutability": "view",
      "type": "function"
    },
    {
      "inputs": [
        {
          "internalType": "address",
          "name": "to",
          "type": "address"
        },
        {
          "internalType": "string",
          "name": "tokenURI",
          "type": "string"
        },
        {
          "internalType": "string",
          "name": "prompt",
          "type": "string"
        }
      ],
      "name": "mint",
      "outputs": [],
      "stateMutability": "nonpayable",
      "type": "function"
    },
    {
      "inputs": [],
      "name": "name",
      "outputs": [
        {
          "internalType": "string",
          "name": "",
          "type": "string"
        }
      ],
      "stateMutability": "view",
      "type": "function"
    },
    {
      "inputs": [],
      "name": "nextTokenId",
      "outputs": [
        {
          "internalType": "uint256",
          "name": "",
          "type": "uint256"
        }
      ],
      "stateMutability": "view",
      "type": "function"
    },
    {
      "inputs": [],
      "name": "owner",
      "outputs": [
        {
          "internalType": "address",
          "name": "",
          "type": "address"
        }
      ],
      "stateMutability": "view",
      "type": "function"
    },
    {
      "inputs": [
        {
          "internalType": "uint256",
          "name": "tokenId",
          "type": "uint256"
        }
      ],
      "name": "ownerOf",
      "outputs": [
        {
          "internalType": "address",
          "name": "",
          "type": "address"
        }
      ],
      "stateMutability": "view",
      "type": "function"
    },
    {
      "inputs": [],
      "name": "renounceOwnership",
      "outputs": [],
      "stateMutability": "nonpayable",
      "type": "function"
    },
    {
      "inputs": [
        {
          "internalType": "address",
          "name": "from",
          "type": "address"
        },
        {
          "internalType": "address",
          "name": "to",
          "type": "address"
        },
        {
          "internalType": "uint256",
          "name": "tokenId",
          "type": "uint256"
        }
      ],
      "name": "safeTransferFrom",
      "outputs": [],
      "stateMutability": "nonpayable",
      "type": "function"
    },
    {
      "inputs": [
        {
          "internalType": "address",
          "name": "from",
          "type": "address"
        },
        {
          "internalType": "address",
          "name": "to",
          "type": "address"
        },
        {
          "internalType": "uint256",
          "name": "tokenId",
          "type": "uint256"
        },
        {
          "internalType": "bytes",
          "name": "data",
          "type": "bytes"
        }
      ],
      "name": "safeTransferFrom",
      "outputs": [],
      "stateMutability": "nonpayable",
      "type": "function"
    },
    {
      "inputs": [
        {
          "internalType": "address",
          "name": "operator",
          "type": "address"
        },
        {
          "internalType": "bool",
          "name": "approved",
          "type": "bool"
        }
      ],
      "name": "setApprovalForAll",
      "outputs": [],
      "stateMutability": "nonpayable",
      "type": "function"
    },
    {
      "inputs": [
        {
          "internalType": "bytes4",
          "name": "interfaceId",
          "type": "bytes4"
        }
      ],
      "name": "supportsInterface",
      "outputs": [
        {
          "internalType": "bool",
          "name": "",
          "type": "bool"
        }
      ],
      "stateMutability": "view",
      "type": "function"
    },
    {
      "inputs": [],
      "name": "symbol",
      "outputs": [
        {
          "internalType": "string",
          "name": "",
          "type": "string"
        }
      ],
      "stateMutability": "view",
      "type": "function"
    },
    {
      "inputs": [
        {
          "internalType": "uint256",
          "name": "tokenId",
          "type": "uint256"
        }
      ],
      "name": "tokenURI",
      "outputs": [
        {
          "internalType": "string",
          "name": "",
          "type": "string"
        }
      ],
      "stateMutability": "view",
      "type": "function"
    },
    {
      "inputs": [
        {
          "internalType": "address",
          "name": "from",
          "type": "address"
        },
        {
          "internalType": "address",
          "name": "to",
          "type": "address"
        },
        {
          "internalType": "uint256",
          "name": "tokenId",
          "type": "uint256"
        }
      ],
      "name": "transferFrom",
      "outputs": [],
      "stateMutability": "nonpayable",
      "type": "function"
    },
    {
      "inputs": [
        {
          "internalType": "address",
          "name": "newOwner",
          "type": "address"
        }
      ],
      "name": "transferOwnership",
      "outputs": [],
      "stateMutability": "nonpayable",
      "type": "function"
    }
  ],
  "bytecode": "0x608060405260006008553480156200001657600080fd5b506040516200361d3803806200361d83398181016040528101906200003c9190620002ce565b336040518060400160405280600d81526020017f4e4654436f6c6c656374696f6e000000000000000000000000000000000000008152506040518060400160405280600481526020017f4e465443000000000000000000000000000000000000000000000000000000008152508160009081620000ba91906200057a565b508060019081620000cc91906200057a565b505050600073ffffffffffffffffffffffffffffffffffffffff168173ffffffffffffffffffffffffffffffffffffffff1603620001445760006040517f1e4fbdf70000000000000000000000000000000000000000000000000000000081526004016200013b919062000672565b60405180910390fd5b62000155816200019e60201b60201c565b5080600a60006101000a81548173ffffffffffffffffffffffffffffffffffffffff021916908373ffffffffffffffffffffffffffffffffffffffff160217905550506200068f565b6000600760009054906101000a900473ffffffffffffffffffffffffffffffffffffffff16905081600760006101000a81548173ffffffffffffffffffffffffffffffffffffffff021916908373ffffffffffffffffffffffffffffffffffffffff1602179055508173ffffffffffffffffffffffffffffffffffffffff168173ffffffffffffffffffffffffffffffffffffffff167f8be0079c531659141344cd1fd0a4f28419497f9722a3daafe3b4186f6b6457e060405160405180910390a35050565b600080fd5b600073ffffffffffffffffffffffffffffffffffffffff82169050919050565b6000620002968262000269565b9050919050565b620002a88162000289565b8114620002b457600080fd5b50565b600081519050620002c8816200029d565b92915050565b600060208284031215620002e757620002e662000264565b5b6000620002f784828501620002b7565b91505092915050565b600081519050919050565b7f4e487b7100000000000000000000000000000000000000000000000000000000600052604160045260246000fd5b7f4e487b7100000000000000000000000000000000000000000000000000000000600052602260045260246000fd5b600060028204905060018216806200038257607f821691505b6020821081036200039857620003976200033a565b5b50919050565b60008190508160005260206000209050919050565b60006020601f8301049050919050565b600082821b905092915050565b600060088302620004027fffffffffffffffffffffffffffffffffffffffffffffffffffffffffffffffff82620003c3565b6200040e8683620003c3565b95508019841693508086168417925050509392505050565b6000819050919050565b6000819050919050565b60006200045b620004556200044f8462000426565b62000430565b62000426565b9050919050565b6000819050919050565b62000477836200043a565b6200048f620004868262000462565b848454620003d0565b825550505050565b600090565b620004a662000497565b620004b38184846200046c565b505050565b5b81811015620004db57620004cf6000826200049c565b600181019050620004b9565b5050565b601f8211156200052a57620004f4816200039e565b620004ff84620003b3565b810160208510156200050f578190505b620005276200051e85620003b3565b830182620004b8565b50505b505050565b600082821c905092915050565b60006200054f600019846008026200052f565b1980831691505092915050565b60006200056a83836200053c565b9150826002028217905092915050565b620005858262000300565b67ffffffffffffffff811115620005a157620005a06200030b565b5b620005ad825462000369565b620005ba828285620004df565b600060209050601f831160018114620005f25760008415620005dd578287015190505b620005e985826200055c565b86555062000659565b601f19841662000602866200039e565b60005b828110156200062c5784890151825560018201915060208501945060208101905062000605565b868310156200064c578489015162000648601f8916826200053c565b8355505b6001600288020188555050505b505050505050565b6200066c8162000289565b82525050565b600060208201905062000689600083018462000661565b92915050565b612f7e806200069f6000396000f3fe608060405234801561001057600080fd5b506004361061014d5760003560e01c806370a08231116100c3578063a22cb4651161007c578063a22cb46514610379578063b88d4fde14610395578063c547c6fc146103b1578063c87b56dd146103e1578063e985e9c514610411578063f2fde38b146104415761014d565b806370a08231146102c9578063715018a6146102f957806375794a3c146103035780638da5cb5b1461032157806395d89b411461033f578063990711901461035d5761014d565b806323b872dd1161011557806323b872dd1461020a5780633f0e317b1461022657806342842e0e1461024557806360f36f4a146102615780636352211e1461027d578063638e5c78146102ad5761014d565b806301ffc9a71461015257806306fdde0314610182578063081812fc146101a0578063095ea7b3146101d05780631bd873e8146101ec575b600080fd5b61016c600480360381019061016791906120eb565b61045d565b6040516101799190612133565b60405180910390f35b61018a6104be565b60405161019791906121de565b60405180910390f35b6101ba60048036038101906101b59190612236565b610550565b6040516101c791906122a4565b60405180910390f35b6101ea60048036038101906101e591906122eb565b61056c565b005b6101f4610582565b604051610201919061238a565b60405180910390f35b610224600480360381019061021f91906123a5565b6105a8565b005b61022e6106aa565b60405161023c929190612504565b60405180910390f35b61025f600480360381019061025a91906123a5565b610859565b005b61027b60048036038101906102769190612236565b610879565b005b61029760048036038101906102929190612236565b61091f565b6040516102a491906122a4565b60405180910390f35b6102c760048036038101906102c29190612236565b610931565b005b6102e360048036038101906102de919061253b565b610a8b565b6040516102f09190612577565b60405180910390f35b610301610b45565b005b61030b610b59565b6040516103189190612577565b60405180910390f35b610329610b5f565b60405161033691906122a4565b60405180910390f35b610347610b89565b60405161035491906121de565b60405180910390f35b610377600480360381019061037291906126c7565b610c1b565b005b610393600480360381019061038e919061277e565b610cce565b005b6103af60048036038101906103aa919061285f565b610ce4565b005b6103cb60048036038101906103c69190612236565b610d01565b6040516103d891906121de565b60405180910390f35b6103fb60048036038101906103f69190612236565b610e1d565b60405161040891906121de565b60405180910390f35b61042b600480360381019061042691906128e2565b610f30565b6040516104389190612133565b60405180910390f35b61045b6004803603810190610456919061253b565b610fc4565b005b6000634906490660e01b7bffffffffffffffffffffffffffffffffffffffffffffffffffffffff1916827bffffffffffffffffffffffffffffffffffffffffffffffffffffffff191614806104b757506104b68261104a565b5b9050919050565b6060600080546104cd90612951565b80601f01602080910402602001604051908101604052809291908181526020018280546104f990612951565b80156105465780601f1061051b57610100808354040283529160200191610546565b820191906000526020600020905b81548152906001019060200180831161052957829003601f168201915b5050505050905090565b600061055b8261112c565b50610565826111b4565b9050919050565b61057e82826105796111f1565b6111f9565b5050565b600a60009054906101000a900473ffffffffffffffffffffffffffffffffffffffff1681565b600073ffffffffffffffffffffffffffffffffffffffff168273ffffffffffffffffffffffffffffffffffffffff160361061a5760006040517f64a0ae9200000000000000000000000000000000000000000000000000000000815260040161061191906122a4565b60405180910390fd5b600061062e83836106296111f1565b61120b565b90508373ffffffffffffffffffffffffffffffffffffffff168173ffffffffffffffffffffffffffffffffffffffff16146106a4578382826040517f64283d7b00000000000000000000000000000000000000000000000000000000815260040161069b93929190612982565b60405180910390fd5b50505050565b606080600060085490508067ffffffffffffffff8111156106ce576106cd61259c565b5b60405190808252806020026020018201604052801561070157816020015b60608152602001906001900390816106ec5790505b5092508067ffffffffffffffff81111561071e5761071d61259c565b5b60405190808252806020026020018201604052801561075157816020015b606081526020019060019003908161073c5790505b50915060005b818110156108535760096000828152602001908152602001600020805461077d90612951565b80601f01602080910402602001604051908101604052809291908181526020018280546107a990612951565b80156107f65780601f106107cb576101008083540402835291602001916107f6565b820191906000526020600020905b8154815290600101906020018083116107d957829003601f168201915b505050505084828151811061080e5761080d6129b9565b5b602002602001018190525061082281610e1d565b838281518110610835576108346129b9565b5b6020026020010181905250808061084b90612a17565b915050610757565b50509091565b61087483838360405180602001604052806000815250610ce4565b505050565b600073ffffffffffffffffffffffffffffffffffffffff1661089a82611425565b73ffffffffffffffffffffffffffffffffffffffff16036108f0576040517f08c379a00000000000000000000000000000000000000000000000000000000081526004016108e790612aab565b60405180910390fd5b61091c600a60009054906101000a900473ffffffffffffffffffffffffffffffffffffffff168261056c565b50565b600061092a8261112c565b9050919050565b600073ffffffffffffffffffffffffffffffffffffffff1661095282611425565b73ffffffffffffffffffffffffffffffffffffffff16036109a8576040517f08c379a000000000000000000000000000000000000000000000000000000000815260040161099f90612aab565b60405180910390fd5b6109b3333083610859565b600a60009054906101000a900473ffffffffffffffffffffffffffffffffffffffff1673ffffffffffffffffffffffffffffffffffffffff1663bc157ac18230846040518463ffffffff1660e01b8152600401610a1293929190612acb565b600060405180830381600087803b158015610a2c57600080fd5b505af1158015610a40573d6000803e3d6000fd5b505050503373ffffffffffffffffffffffffffffffffffffffff16817f052b1fb285141146b72f7eddd25172042be309c15a803900dce35e0ae95c04dd60405160405180910390a350565b60008073ffffffffffffffffffffffffffffffffffffffff168273ffffffffffffffffffffffffffffffffffffffff1603610afe5760006040517f89c62b64000000000000000000000000000000000000000000000000000000008152600401610af591906122a4565b60405180910390fd5b600360008373ffffffffffffffffffffffffffffffffffffffff1673ffffffffffffffffffffffffffffffffffffffff168152602001908152602001600020549050919050565b610b4d611462565b610b5760006114e9565b565b60085481565b6000600760009054906101000a900473ffffffffffffffffffffffffffffffffffffffff16905090565b606060018054610b9890612951565b80601f0160208091040260200160405190810160405280929190818152602001828054610bc490612951565b8015610c115780601f10610be657610100808354040283529160200191610c11565b820191906000526020600020905b815481529060010190602001808311610bf457829003601f168201915b5050505050905090565b610c23611462565b6000600854905060086000815480929190610c3d90612a17565b9190505550610c4c84826115af565b610c5681846116a8565b81600960008381526020019081526020016000209081610c769190612ca4565b508373ffffffffffffffffffffffffffffffffffffffff16817f0372de3fa001ec655fcb2f8096e13cb1f68d1b8b9bb9d2674fc7d880de7e80458585604051610cc0929190612d76565b60405180910390a350505050565b610ce0610cd96111f1565b8383611704565b5050565b610cef8484846105a8565b610cfb84848484611873565b50505050565b6060600073ffffffffffffffffffffffffffffffffffffffff16610d2483611425565b73ffffffffffffffffffffffffffffffffffffffff1603610d7a576040517f08c379a0000000000000000000000000000000000000000000000000000000008152600401610d7190612aab565b60405180910390fd5b600960008381526020019081526020016000208054610d9890612951565b80601f0160208091040260200160405190810160405280929190818152602001828054610dc490612951565b8015610e115780601f10610de657610100808354040283529160200191610e11565b820191906000526020600020905b815481529060010190602001808311610df457829003601f168201915b50505050509050919050565b6060610e288261112c565b506000600660008481526020019081526020016000208054610e4990612951565b80601f0160208091040260200160405190810160405280929190818152602001828054610e7590612951565b8015610ec25780601f10610e9757610100808354040283529160200191610ec2565b820191906000526020600020905b815481529060010190602001808311610ea557829003601f168201915b505050505090506000610ed3611a2a565b90506000815103610ee8578192505050610f2b565b600082511115610f1d578082604051602001610f05929190612de9565b60405160208183030381529060405292505050610f2b565b610f2684611a41565b925050505b919050565b6000600560008473ffffffffffffffffffffffffffffffffffffffff1673ffffffffffffffffffffffffffffffffffffffff16815260200190815260200160002060008373ffffffffffffffffffffffffffffffffffffffff1673ffffffffffffffffffffffffffffffffffffffff16815260200190815260200160002060009054906101000a900460ff16905092915050565b610fcc611462565b600073ffffffffffffffffffffffffffffffffffffffff168173ffffffffffffffffffffffffffffffffffffffff160361103e5760006040517f1e4fbdf700000000000000000000000000000000000000000000000000000000815260040161103591906122a4565b60405180910390fd5b611047816114e9565b50565b60007f80ac58cd000000000000000000000000000000000000000000000000000000007bffffffffffffffffffffffffffffffffffffffffffffffffffffffff1916827bffffffffffffffffffffffffffffffffffffffffffffffffffffffff1916148061111557507f5b5e139f000000000000000000000000000000000000000000000000000000007bffffffffffffffffffffffffffffffffffffffffffffffffffffffff1916827bffffffffffffffffffffffffffffffffffffffffffffffffffffffff1916145b80611125575061112482611aaa565b5b9050919050565b60008061113883611425565b9050600073ffffffffffffffffffffffffffffffffffffffff168173ffffffffffffffffffffffffffffffffffffffff16036111ab57826040517f7e2732890000000000000000000000000000000000000000000000000000000081526004016111a29190612577565b60405180910390fd5b80915050919050565b60006004600083815260200190815260200160002060009054906101000a900473ffffffffffffffffffffffffffffffffffffffff169050919050565b600033905090565b6112068383836001611b14565b505050565b60008061121784611425565b9050600073ffffffffffffffffffffffffffffffffffffffff168373ffffffffffffffffffffffffffffffffffffffff161461125957611258818486611cd9565b5b600073ffffffffffffffffffffffffffffffffffffffff168173ffffffffffffffffffffffffffffffffffffffff16146112ea5761129b600085600080611b14565b6001600360008373ffffffffffffffffffffffffffffffffffffffff1673ffffffffffffffffffffffffffffffffffffffff168152602001908152602001600020600082825403925050819055505b600073ffffffffffffffffffffffffffffffffffffffff168573ffffffffffffffffffffffffffffffffffffffff161461136d576001600360008773ffffffffffffffffffffffffffffffffffffffff1673ffffffffffffffffffffffffffffffffffffffff168152602001908152602001600020600082825401925050819055505b846002600086815260200190815260200160002060006101000a81548173ffffffffffffffffffffffffffffffffffffffff021916908373ffffffffffffffffffffffffffffffffffffffff160217905550838573ffffffffffffffffffffffffffffffffffffffff168273ffffffffffffffffffffffffffffffffffffffff167fddf252ad1be2c89b69c2b068fc378daa952ba7f163c4a11628f55a4df523b3ef60405160405180910390a4809150509392505050565b60006002600083815260200190815260200160002060009054906101000a900473ffffffffffffffffffffffffffffffffffffffff169050919050565b61146a6111f1565b73ffffffffffffffffffffffffffffffffffffffff16611488610b5f565b73ffffffffffffffffffffffffffffffffffffffff16146114e7576114ab6111f1565b6040517f118cdaa70000000000000000000000000000000000000000000000000000000081526004016114de91906122a4565b60405180910390fd5b565b6000600760009054906101000a900473ffffffffffffffffffffffffffffffffffffffff16905081600760006101000a81548173ffffffffffffffffffffffffffffffffffffffff021916908373ffffffffffffffffffffffffffffffffffffffff1602179055508173ffffffffffffffffffffffffffffffffffffffff168173ffffffffffffffffffffffffffffffffffffffff167f8be0079c531659141344cd1fd0a4f28419497f9722a3daafe3b4186f6b6457e060405160405180910390a35050565b600073ffffffffffffffffffffffffffffffffffffffff168273ffffffffffffffffffffffffffffffffffffffff16036116215760006040517f64a0ae9200000000000000000000000000000000000000000000000000000000815260040161161891906122a4565b60405180910390fd5b600061162f8383600061120b565b9050600073ffffffffffffffffffffffffffffffffffffffff168173ffffffffffffffffffffffffffffffffffffffff16146116a35760006040517f73c6ac6e00000000000000000000000000000000000000000000000000000000815260040161169a91906122a4565b60405180910390fd5b505050565b806006600084815260200190815260200160002090816116c89190612ca4565b507ff8e1a15aba9398e019f0b49df1a4fde98ee17ae345cb5f6b5e2c27f5033e8ce7826040516116f89190612577565b60405180910390a15050565b600073ffffffffffffffffffffffffffffffffffffffff168273ffffffffffffffffffffffffffffffffffffffff160361177557816040517f5b08ba1800000000000000000000000000000000000000000000000000000000815260040161176c91906122a4565b60405180910390fd5b80600560008573ffffffffffffffffffffffffffffffffffffffff1673ffffffffffffffffffffffffffffffffffffffff16815260200190815260200160002060008473ffffffffffffffffffffffffffffffffffffffff1673ffffffffffffffffffffffffffffffffffffffff16815260200190815260200160002060006101000a81548160ff0219169083151502179055508173ffffffffffffffffffffffffffffffffffffffff168373ffffffffffffffffffffffffffffffffffffffff167f17307eab39ab6107e8899845ad3d59bd9653f200f220920489ca2b5937696c31836040516118669190612133565b60405180910390a3505050565b60008373ffffffffffffffffffffffffffffffffffffffff163b1115611a24578273ffffffffffffffffffffffffffffffffffffffff1663150b7a026118b76111f1565b8685856040518563ffffffff1660e01b81526004016118d99493929190612e62565b6020604051808303816000875af192505050801561191557506040513d601f19601f820116820180604052508101906119129190612ec3565b60015b611999573d8060008114611945576040519150601f19603f3d011682016040523d82523d6000602084013e61194a565b606091505b50600081510361199157836040517f64a0ae9200000000000000000000000000000000000000000000000000000000815260040161198891906122a4565b60405180910390fd5b805181602001fd5b63150b7a0260e01b7bffffffffffffffffffffffffffffffffffffffffffffffffffffffff1916817bffffffffffffffffffffffffffffffffffffffffffffffffffffffff191614611a2257836040517f64a0ae92000000000000000000000000000000000000000000000000000000008152600401611a1991906122a4565b60405180910390fd5b505b50505050565b606060405180602001604052806000815250905090565b6060611a4c8261112c565b506000611a57611a2a565b90506000815111611a775760405180602001604052806000815250611aa2565b80611a8184611d9d565b604051602001611a92929190612de9565b6040516020818303038152906040525b915050919050565b60007f01ffc9a7000000000000000000000000000000000000000000000000000000007bffffffffffffffffffffffffffffffffffffffffffffffffffffffff1916827bffffffffffffffffffffffffffffffffffffffffffffffffffffffff1916149050919050565b8080611b4d5750600073ffffffffffffffffffffffffffffffffffffffff168273ffffffffffffffffffffffffffffffffffffffff1614155b15611c81576000611b5d8461112c565b9050600073ffffffffffffffffffffffffffffffffffffffff168373ffffffffffffffffffffffffffffffffffffffff1614158015611bc857508273ffffffffffffffffffffffffffffffffffffffff168173ffffffffffffffffffffffffffffffffffffffff1614155b8015611bdb5750611bd98184610f30565b155b15611c1d57826040517fa9fbf51f000000000000000000000000000000000000000000000000000000008152600401611c1491906122a4565b60405180910390fd5b8115611c7f57838573ffffffffffffffffffffffffffffffffffffffff168273ffffffffffffffffffffffffffffffffffffffff167f8c5be1e5ebec7d5bd14f71427d1e84f3dd0314c0f7b2291e5b200ac8c7c3b92560405160405180910390a45b505b836004600085815260200190815260200160002060006101000a81548173ffffffffffffffffffffffffffffffffffffffff021916908373ffffffffffffffffffffffffffffffffffffffff16021790555050505050565b611ce4838383611e6b565b611d9857600073ffffffffffffffffffffffffffffffffffffffff168373ffffffffffffffffffffffffffffffffffffffff1603611d5957806040517f7e273289000000000000000000000000000000000000000000000000000000008152600401611d509190612577565b60405180910390fd5b81816040517f177e802f000000000000000000000000000000000000000000000000000000008152600401611d8f929190612ef0565b60405180910390fd5b505050565b606060006001611dac84611f2c565b01905060008167ffffffffffffffff811115611dcb57611dca61259c565b5b6040519080825280601f01601f191660200182016040528015611dfd5781602001600182028036833780820191505090505b509050600082602001820190505b600115611e60578080600190039150507f3031323334353637383961626364656600000000000000000000000000000000600a86061a8153600a8581611e5457611e53612f19565b5b04945060008503611e0b575b819350505050919050565b60008073ffffffffffffffffffffffffffffffffffffffff168373ffffffffffffffffffffffffffffffffffffffff1614158015611f2357508273ffffffffffffffffffffffffffffffffffffffff168473ffffffffffffffffffffffffffffffffffffffff161480611ee45750611ee38484610f30565b5b80611f2257508273ffffffffffffffffffffffffffffffffffffffff16611f0a836111b4565b73ffffffffffffffffffffffffffffffffffffffff16145b5b90509392505050565b600080600090507a184f03e93ff9f4daa797ed6e38ed64bf6a1f0100000000000000008310611f8a577a184f03e93ff9f4daa797ed6e38ed64bf6a1f0100000000000000008381611f8057611f7f612f19565b5b0492506040810190505b6d04ee2d6d415b85acef81000000008310611fc7576d04ee2d6d415b85acef81000000008381611fbd57611fbc612f19565b5b0492506020810190505b662386f26fc100008310611ff657662386f26fc100008381611fec57611feb612f19565b5b0492506010810190505b6305f5e100831061201f576305f5e100838161201557612014612f19565b5b0492506008810190505b612710831061204457612710838161203a57612039612f19565b5b0492506004810190505b60648310612067576064838161205d5761205c612f19565b5b0492506002810190505b600a8310612076576001810190505b80915050919050565b6000604051905090565b600080fd5b600080fd5b60007fffffffff0000000000000000000000000000000000000000000000000000000082169050919050565b6120c881612093565b81146120d357600080fd5b50565b6000813590506120e5816120bf565b92915050565b60006020828403121561210157612100612089565b5b600061210f848285016120d6565b91505092915050565b60008115159050919050565b61212d81612118565b82525050565b60006020820190506121486000830184612124565b92915050565b600081519050919050565b600082825260208201905092915050565b60005b8381101561218857808201518184015260208101905061216d565b60008484015250505050565b6000601f19601f8301169050919050565b60006121b08261214e565b6121ba8185612159565b93506121ca81856020860161216a565b6121d381612194565b840191505092915050565b600060208201905081810360008301526121f881846121a5565b905092915050565b6000819050919050565b61221381612200565b811461221e57600080fd5b50565b6000813590506122308161220a565b92915050565b60006020828403121561224c5761224b612089565b5b600061225a84828501612221565b91505092915050565b600073ffffffffffffffffffffffffffffffffffffffff82169050919050565b600061228e82612263565b9050919050565b61229e81612283565b82525050565b60006020820190506122b96000830184612295565b92915050565b6122c881612283565b81146122d357600080fd5b50565b6000813590506122e5816122bf565b92915050565b6000806040838503121561230257612301612089565b5b6000612310858286016122d6565b925050602061232185828601612221565b9150509250929050565b6000819050919050565b600061235061234b61234684612263565b61232b565b612263565b9050919050565b600061236282612335565b9050919050565b600061237482612357565b9050919050565b61238481612369565b82525050565b600060208201905061239f600083018461237b565b92915050565b6000806000606084860312156123be576123bd612089565b5b60006123cc868287016122d6565b93505060206123dd868287016122d6565b92505060406123ee86828701612221565b9150509250925092565b600081519050919050565b600082825260208201905092915050565b6000819050602082019050919050565b600082825260208201905092915050565b60006124408261214e565b61244a8185612424565b935061245a81856020860161216a565b61246381612194565b840191505092915050565b600061247a8383612435565b905092915050565b6000602082019050919050565b600061249a826123f8565b6124a48185612403565b9350836020820285016124b685612414565b8060005b858110156124f257848403895281516124d3858261246e565b94506124de83612482565b925060208a019950506001810190506124ba565b50829750879550505050505092915050565b6000604082019050818103600083015261251e818561248f565b90508181036020830152612532818461248f565b90509392505050565b60006020828403121561255157612550612089565b5b600061255f848285016122d6565b91505092915050565b61257181612200565b82525050565b600060208201905061258c6000830184612568565b92915050565b600080fd5b600080fd5b7f4e487b7100000000000000000000000000000000000000000000000000000000600052604160045260246000fd5b6125d482612194565b810181811067ffffffffffffffff821117156125f3576125f261259c565b5b80604052505050565b600061260661207f565b905061261282826125cb565b919050565b600067ffffffffffffffff8211156126325761263161259c565b5b61263b82612194565b9050602081019050919050565b82818337600083830152505050565b600061266a61266584612617565b6125fc565b90508281526020810184848401111561268657612685612597565b5b612691848285612648565b509392505050565b600082601f8301126126ae576126ad612592565b5b81356126be848260208601612657565b91505092915050565b6000806000606084860312156126e0576126df612089565b5b60006126ee868287016122d6565b935050602084013567ffffffffffffffff81111561270f5761270e61208e565b5b61271b86828701612699565b925050604084013567ffffffffffffffff81111561273c5761273b61208e565b5b61274886828701612699565b9150509250925092565b61275b81612118565b811461276657600080fd5b50565b60008135905061277881612752565b92915050565b6000806040838503121561279557612794612089565b5b60006127a3858286016122d6565b92505060206127b485828601612769565b9150509250929050565b600067ffffffffffffffff8211156127d9576127d861259c565b5b6127e282612194565b9050602081019050919050565b60006128026127fd846127be565b6125fc565b90508281526020810184848401111561281e5761281d612597565b5b612829848285612648565b509392505050565b600082601f83011261284657612845612592565b5b81356128568482602086016127ef565b91505092915050565b6000806000806080858703121561287957612878612089565b5b6000612887878288016122d6565b9450506020612898878288016122d6565b93505060406128a987828801612221565b925050606085013567ffffffffffffffff8111156128ca576128c961208e565b5b6128d687828801612831565b91505092959194509250565b600080604083850312156128f9576128f8612089565b5b6000612907858286016122d6565b9250506020612918858286016122d6565b9150509250929050565b7f4e487b7100000000000000000000000000000000000000000000000000000000600052602260045260246000fd5b6000600282049050600182168061296957607f821691505b60208210810361297c5761297b612922565b5b50919050565b60006060820190506129976000830186612295565b6129a46020830185612568565b6129b16040830184612295565b949350505050565b7f4e487b7100000000000000000000000000000000000000000000000000000000600052603260045260246000fd5b7f4e487b7100000000000000000000000000000000000000000000000000000000600052601160045260246000fd5b6000612a2282612200565b91507fffffffffffffffffffffffffffffffffffffffffffffffffffffffffffffffff8203612a5457612a536129e8565b5b600182019050919050565b7f546f6b656e20646f6573206e6f74206578697374000000000000000000000000600082015250565b6000612a95601483612159565b9150612aa082612a5f565b602082019050919050565b60006020820190508181036000830152612ac481612a88565b9050919050565b6000606082019050612ae06000830186612568565b612aed6020830185612295565b612afa6040830184612568565b949350505050565b60008190508160005260206000209050919050565b60006020601f8301049050919050565b600082821b905092915050565b600060088302612b647fffffffffffffffffffffffffffffffffffffffffffffffffffffffffffffffff82612b27565b612b6e8683612b27565b95508019841693508086168417925050509392505050565b6000612ba1612b9c612b9784612200565b61232b565b612200565b9050919050565b6000819050919050565b612bbb83612b86565b612bcf612bc782612ba8565b848454612b34565b825550505050565b600090565b612be4612bd7565b612bef818484612bb2565b505050565b5b81811015612c1357612c08600082612bdc565b600181019050612bf5565b5050565b601f821115612c5857612c2981612b02565b612c3284612b17565b81016020851015612c41578190505b612c55612c4d85612b17565b830182612bf4565b50505b505050565b600082821c905092915050565b6000612c7b60001984600802612c5d565b1980831691505092915050565b6000612c948383612c6a565b9150826002028217905092915050565b612cad8261214e565b67ffffffffffffffff811115612cc657612cc561259c565b5b612cd08254612951565b612cdb828285612c17565b600060209050601f831160018114612d0e5760008415612cfc578287015190505b612d068582612c88565b865550612d6e565b601f198416612d1c86612b02565b60005b82811015612d4457848901518255600182019150602085019450602081019050612d1f565b86831015612d615784890151612d5d601f891682612c6a565b8355505b6001600288020188555050505b505050505050565b60006040820190508181036000830152612d9081856121a5565b90508181036020830152612da481846121a5565b90509392505050565b600081905092915050565b6000612dc38261214e565b612dcd8185612dad565b9350612ddd81856020860161216a565b80840191505092915050565b6000612df58285612db8565b9150612e018284612db8565b91508190509392505050565b600081519050919050565b600082825260208201905092915050565b6000612e3482612e0d565b612e3e8185612e18565b9350612e4e81856020860161216a565b612e5781612194565b840191505092915050565b6000608082019050612e776000830187612295565b612e846020830186612295565b612e916040830185612568565b8181036060830152612ea38184612e29565b905095945050505050565b600081519050612ebd816120bf565b92915050565b600060208284031215612ed957612ed8612089565b5b6000612ee784828501612eae565b91505092915050565b6000604082019050612f056000830185612295565b612f126020830184612568565b9392505050565b7f4e487b7100000000000000000000000000000000000000000000000000000000600052601260045260246000fdfea2646970667358221220b1aeb88e76bae0bc4b08b74105d8d5295e4798a5aa4694c5f1c667c29a98111764736f6c63430008140033",
  "linkReferences": {},
  "deployedLinkReferences": {}
}