{
  "contractName": "Factory",
  "abi": [
    {
      "inputs": [],
      "stateMutability": "nonpayable",
      "type": "constructor"
    },
    {
      "anonymous": false,
      "inputs": [
        {
          "indexed": true,
          "internalType": "address",
          "name": "walletAddress",
          "type": "address"
        },
        {
          "indexed": true,
          "internalType": "address",
          "name": "owner",
          "type": "address"
        }
      ],
      "name": "WalletCreated",
      "type": "event"
    },
    {
      "inputs": [],
      "name": "owner",
      "outputs": [
        {
          "internalType": "address",
          "name": "",
          "type": "address"
        }
      ],
      "stateMutability": "view",
      "type": "function",
      "constant": true
    },
    {
      "inputs": [
        {
          "internalType": "uint256",
          "name": "",
          "type": "uint256"
        }
      ],
      "name": "wallets",
      "outputs": [
        {
          "internalType": "contract Wallet",
          "name": "",
          "type": "address"
        }
      ],
      "stateMutability": "view",
      "type": "function",
      "constant": true
    },
    {
      "inputs": [],
      "name": "createWallet",
      "outputs": [
        {
          "internalType": "address",
          "name": "",
          "type": "address"
        }
      ],
      "stateMutability": "nonpayable",
      "type": "function"
    },
    {
      "inputs": [],
      "name": "getWallets",
      "outputs": [
        {
          "internalType": "address[]",
          "name": "",
          "type": "address[]"
        }
      ],
      "stateMutability": "view",
      "type": "function",
      "constant": true
    }
  ],
  "bytecode": "0x608060405234801561000f575f80fd5b505f80546001600160a01b031916331790556110978061002e5f395ff3fe608060405234801561000f575f80fd5b506004361061004a575f3560e01c806311ebbf241461004e5780637ad71f72146100735780638da5cb5b14610086578063db7a460514610098575b5f80fd5b6100566100ad565b6040516001600160a01b0390911681526020015b60405180910390f35b610056610081366004610220565b610123565b5f54610056906001600160a01b031681565b6100a061014b565b60405161006a9190610237565b5f80336040516100bc90610213565b6001600160a01b039091168152602001604051809103905ff0801580156100e5573d5f803e3d5ffd5b5060405190915033906001600160a01b038316907f5b03bfed1c14a02bdeceb5fa582eb1a5765fc0bc64ca0e6af4c20afc9487f081905f90a3919050565b60018181548110610132575f80fd5b5f918252602090912001546001600160a01b0316905081565b6001546060905f9067ffffffffffffffff81111561016b5761016b610283565b604051908082528060200260200182016040528015610194578160200160208202803683370190505b5090505f5b60015481101561020d57600181815481106101b6576101b6610297565b905f5260205f20015f9054906101000a90046001600160a01b03168282815181106101e3576101e3610297565b6001600160a01b039092166020928302919091019091015280610205816102ab565b915050610199565b50919050565b610d92806102d083390190565b5f60208284031215610230575f80fd5b5035919050565b602080825282518282018190525f9190848201906040850190845b818110156102775783516001600160a01b031683529284019291840191600101610252565b50909695505050505050565b634e487b7160e01b5f52604160045260245ffd5b634e487b7160e01b5f52603260045260245ffd5b5f600182016102c857634e487b7160e01b5f52601160045260245ffd5b506001019056fe608060405234801561000f575f80fd5b50604051610d92380380610d9283398101604081905261002e916100bb565b806001600160a01b03811661005c57604051631e4fbdf760e01b81525f600482015260240160405180910390fd5b6100658161006c565b50506100e8565b5f80546001600160a01b038381166001600160a01b0319831681178455604051919092169283917f8be0079c531659141344cd1fd0a4f28419497f9722a3daafe3b4186f6b6457e09190a35050565b5f602082840312156100cb575f80fd5b81516001600160a01b03811681146100e1575f80fd5b9392505050565b610c9d806100f55f395ff3fe608060405260043610610087575f3560e01c80638da5cb5b116100575780638da5cb5b146101485780639686cf271461016e578063d0e30db014610132578063f2fde38b1461018d578063fd6b73ad146101ac575f80fd5b806312065fe0146100c75780631246f6e0146100e65780632e1a7d4d14610113578063715018a614610134575f80fd5b366100c35760405134815233907f2da466a7b24304f47e87fa2e1e5a81b9831ce54fec19055ce277ca2f39ba42c49060200160405180910390a2005b5f80fd5b3480156100d2575f80fd5b506040514781526020015b60405180910390f35b3480156100f1575f80fd5b5061010561010036600461082a565b6101cb565b6040516100dd9291906108b9565b34801561011e575f80fd5b5061013261012d3660046108db565b61023e565b005b34801561013f575f80fd5b50610132610319565b348015610153575f80fd5b505f546040516001600160a01b0390911681526020016100dd565b348015610179575f80fd5b5061013261018836600461090d565b61032c565b348015610198575f80fd5b506101326101a7366004610a0f565b61055c565b3480156101b7575f80fd5b506101326101c6366004610a2f565b610596565b5f60606101d6610660565b5f80306001600160a01b031685876040516101f19190610a57565b5f604051808303815f8787f1925050503d805f811461022b576040519150601f19603f3d011682016040523d82523d5f602084013e610230565b606091505b509097909650945050505050565b610246610660565b804710156102925760405162461bcd60e51b8152602060048201526014602482015273496e73756666696369656e742062616c616e636560601b60448201526064015b60405180910390fd5b5f80546040516001600160a01b039091169183156108fc02918491818181858888f193505050501580156102c8573d5f803e3d5ffd5b505f546001600160a01b03166001600160a01b03167f7084f5476618d8e60b11ef0d7d3f06914655adb8793e28ff7f018d4c76d505d58260405161030e91815260200190565b60405180910390a250565b610321610660565b61032a5f61068c565b565b610334610660565b60408082015160608301519151629237b760e51b81523092631246f6e09261036192909190600401610a72565b5f604051808303815f875af192505050801561039e57506040513d5f823e601f3d908101601f1916820160405261039b9190810190610ad5565b60015b610500576103aa610b3a565b806308c379a00361042757506103be610b53565b806103c95750610429565b6060820151604080840151905130927fcccb326cd7ad7b62e31b1a19df7a8817819c65c32dac273be69787a302db5f6492610405928690610bdc565b60405180910390a28060405162461bcd60e51b81526004016102899190610c10565b505b3d808015610452576040519150601f19603f3d011682016040523d82523d5f602084013e610457565b606091505b505f610462826106db565b9050306001600160a01b03167fcccb326cd7ad7b62e31b1a19df7a8817819c65c32dac273be69787a302db5f6484606001518560400151846040516104a993929190610bdc565b60405180910390a2825f01516001600160a01b03167fa5d56b7d10849aa6d0661c94356ae666739b3c49793554e3814813f2221be68084602001516040516104f391815260200190565b60405180910390a2505050565b81610556575f61050f826106db565b9050306001600160a01b03167fcccb326cd7ad7b62e31b1a19df7a8817819c65c32dac273be69787a302db5f64856060015186604001518460405161040593929190610bdc565b50505b50565b610564610660565b6001600160a01b03811661058d57604051631e4fbdf760e01b81525f6004820152602401610289565b6105598161068c565b61059e610660565b804710156105e55760405162461bcd60e51b8152602060048201526014602482015273496e73756666696369656e742062616c616e636560601b6044820152606401610289565b6040516001600160a01b0383169082156108fc029083905f818181858888f19350505050158015610618573d5f803e3d5ffd5b50816001600160a01b03167f9a1fd8511a9f728f23ed3cb955318fe1f8b2bc7c3aeea602c7f7ecf959a469398260405161065491815260200190565b60405180910390a25050565b5f546001600160a01b0316331461032a5760405163118cdaa760e01b8152336004820152602401610289565b5f80546001600160a01b038381166001600160a01b0319831681178455604051919092169283917f8be0079c531659141344cd1fd0a4f28419497f9722a3daafe3b4186f6b6457e09190a35050565b606060448251101561072057505060408051808201909152601d81527f5472616e73616374696f6e2072657665727465642073696c656e746c79000000602082015290565b6004820191508180602001905181019061073a9190610c22565b92915050565b634e487b7160e01b5f52604160045260245ffd5b601f8201601f1916810167ffffffffffffffff8111828210171561077a5761077a610740565b6040525050565b604051610140810167ffffffffffffffff811182821017156107a5576107a5610740565b60405290565b5f67ffffffffffffffff8211156107c4576107c4610740565b50601f01601f191660200190565b5f82601f8301126107e1575f80fd5b81356107ec816107ab565b6040516107f98282610754565b82815285602084870101111561080d575f80fd5b826020860160208301375f92810160200192909252509392505050565b5f806040838503121561083b575f80fd5b823567ffffffffffffffff811115610851575f80fd5b61085d858286016107d2565b95602094909401359450505050565b5f5b8381101561088657818101518382015260200161086e565b50505f910152565b5f81518084526108a581602086016020860161086c565b601f01601f19169290920160200192915050565b8215158152604060208201525f6108d3604083018461088e565b949350505050565b5f602082840312156108eb575f80fd5b5035919050565b80356001600160a01b0381168114610908575f80fd5b919050565b5f6020828403121561091d575f80fd5b813567ffffffffffffffff80821115610934575f80fd5b908301906101408286031215610948575f80fd5b610950610781565b610959836108f2565b815260208301356020820152604083013582811115610976575f80fd5b610982878286016107d2565b604083015250606083013560608201526080830135608082015260a083013560a082015260c083013560c082015260e083013560e082015261010080840135838111156109cd575f80fd5b6109d9888287016107d2565b82840152505061012080840135838111156109f2575f80fd5b6109fe888287016107d2565b918301919091525095945050505050565b5f60208284031215610a1f575f80fd5b610a28826108f2565b9392505050565b5f8060408385031215610a40575f80fd5b610a49836108f2565b946020939093013593505050565b5f8251610a6881846020870161086c565b9190910192915050565b604081525f610a84604083018561088e565b90508260208301529392505050565b5f610a9d836107ab565b604051610aaa8282610754565b809250848152858585011115610abe575f80fd5b610acc85602083018661086c565b50509392505050565b5f8060408385031215610ae6575f80fd5b82518015158114610af5575f80fd5b602084015190925067ffffffffffffffff811115610b11575f80fd5b8301601f81018513610b21575f80fd5b610b3085825160208401610a93565b9150509250929050565b5f60033d1115610b505760045f803e505f5160e01c5b90565b5f60443d1015610b605790565b6040516003193d81016004833e81513d67ffffffffffffffff8160248401118184111715610b9057505050505090565b8285019150815181811115610ba85750505050505090565b843d8701016020828501011115610bc25750505050505090565b610bd160208286010187610754565b509095945050505050565b838152606060208201525f610bf4606083018561088e565b8281036040840152610c06818561088e565b9695505050505050565b602081525f610a28602083018461088e565b5f60208284031215610c32575f80fd5b815167ffffffffffffffff811115610c48575f80fd5b8201601f81018413610c58575f80fd5b6108d384825160208401610a9356fea26469706673582212202648759f69ea0dae11309ce79467edf6352d948bd166e3fe799bc3a2f3cca40f64736f6c63430008140033a264697066735822122091200702f8b18c5acbc0b36ee3a5920e57c5426ddef1503f67cf11afa939c85164736f6c63430008140033",
  "immutableReferences": {},
  "source": "// SPDX-License-Identifier: MIT\npragma solidity ^0.8.0;\n\nimport \"./Wallet.sol\";\n\ncontract Factory {\n    event WalletCreated(address indexed walletAddress, address indexed owner);\n    address public owner;\n    Wallet[] public wallets;\n\n    constructor() {\n        owner = msg.sender;\n    }\n\n    function createWallet() external returns (address) {\n        Wallet newWallet = new Wallet(msg.sender);\n        emit WalletCreated(address(newWallet), msg.sender);\n        return address(newWallet);\n    }\n    function getWallets() public view returns (address[] memory) {\n        address[] memory walletAddresses = new address[](wallets.length);\n        for (uint256 i = 0; i < wallets.length; i++) {\n            walletAddresses[i] = address(wallets[i]);\n        }\n        return walletAddresses;\n    }\n}\n",
  "sourcePath": "/home/sourav/programming/MetaCrafter/eth-advanced/4. Wallet/contracts/Factory.sol",
  "compiler": {
    "name": "solc",
    "version": "0.8.20+commit.a1b79de6.Emscripten.clang"
  },
  "schemaVersion": "3.4.16",
  "updatedAt": "2024-06-19T02:11:39.996Z",
  "networkType": "ethereum",
  "devdoc": {
    "kind": "dev",
    "methods": {},
    "version": 1
  },
  "userdoc": {
    "kind": "user",
    "methods": {},
    "version": 1
  }
}