{
  "contractName": "WalletFactory",
  "abi": [
    {
      "inputs": [],
      "stateMutability": "nonpayable",
      "type": "constructor"
    },
    {
      "anonymous": false,
      "inputs": [
        {
          "indexed": true,
          "internalType": "address",
          "name": "walletAddress",
          "type": "address"
        },
        {
          "indexed": true,
          "internalType": "address",
          "name": "owner",
          "type": "address"
        }
      ],
      "name": "WalletCreated",
      "type": "event"
    },
    {
      "inputs": [],
      "name": "owner",
      "outputs": [
        {
          "internalType": "address",
          "name": "",
          "type": "address"
        }
      ],
      "stateMutability": "view",
      "type": "function"
    },
    {
      "inputs": [
        {
          "internalType": "uint256",
          "name": "",
          "type": "uint256"
        }
      ],
      "name": "wallets",
      "outputs": [
        {
          "internalType": "contract Wallet",
          "name": "",
          "type": "address"
        }
      ],
      "stateMutability": "view",
      "type": "function"
    },
    {
      "inputs": [],
      "name": "createWallet",
      "outputs": [
        {
          "internalType": "address",
          "name": "",
          "type": "address"
        }
      ],
      "stateMutability": "nonpayable",
      "type": "function"
    },
    {
      "inputs": [],
      "name": "getWallets",
      "outputs": [
        {
          "internalType": "address[]",
          "name": "",
          "type": "address[]"
        }
      ],
      "stateMutability": "view",
      "type": "function"
    }
  ],
  "bytecode": "0x608060405234801561000f575f80fd5b505f80546001600160a01b03191633179055610b9a8061002e5f395ff3fe608060405234801561000f575f80fd5b506004361061004a575f3560e01c806311ebbf241461004e5780637ad71f72146100735780638da5cb5b14610086578063db7a460514610098575b5f80fd5b6100566100ad565b6040516001600160a01b0390911681526020015b60405180910390f35b610056610081366004610220565b610123565b5f54610056906001600160a01b031681565b6100a061014b565b60405161006a9190610237565b5f80336040516100bc90610213565b6001600160a01b039091168152602001604051809103905ff0801580156100e5573d5f803e3d5ffd5b5060405190915033906001600160a01b038316907f5b03bfed1c14a02bdeceb5fa582eb1a5765fc0bc64ca0e6af4c20afc9487f081905f90a3919050565b60018181548110610132575f80fd5b5f918252602090912001546001600160a01b0316905081565b6001546060905f9067ffffffffffffffff81111561016b5761016b610283565b604051908082528060200260200182016040528015610194578160200160208202803683370190505b5090505f5b60015481101561020d57600181815481106101b6576101b6610297565b905f5260205f20015f9054906101000a90046001600160a01b03168282815181106101e3576101e3610297565b6001600160a01b039092166020928302919091019091015280610205816102ab565b915050610199565b50919050565b610895806102d083390190565b5f60208284031215610230575f80fd5b5035919050565b602080825282518282018190525f9190848201906040850190845b818110156102775783516001600160a01b031683529284019291840191600101610252565b50909695505050505050565b634e487b7160e01b5f52604160045260245ffd5b634e487b7160e01b5f52603260045260245ffd5b5f600182016102c857634e487b7160e01b5f52601160045260245ffd5b506001019056fe608060405234801561000f575f80fd5b5060405161089538038061089583398101604081905261002e916100bb565b806001600160a01b03811661005c57604051631e4fbdf760e01b81525f600482015260240160405180910390fd5b6100658161006c565b50506100e8565b5f80546001600160a01b038381166001600160a01b0319831681178455604051919092169283917f8be0079c531659141344cd1fd0a4f28419497f9722a3daafe3b4186f6b6457e09190a35050565b5f602082840312156100cb575f80fd5b81516001600160a01b03811681146100e1575f80fd5b9392505050565b6107a0806100f55f395ff3fe608060405260043610610071575f3560e01c80638da5cb5b1161004c5780638da5cb5b146101055780639686cf271461012b578063f2fde38b1461014a578063fd6b73ad14610169575f80fd5b806312065fe0146100b15780632e1a7d4d146100d0578063715018a6146100f1575f80fd5b366100ad5760405134815233907f2da466a7b24304f47e87fa2e1e5a81b9831ce54fec19055ce277ca2f39ba42c49060200160405180910390a2005b5f80fd5b3480156100bc575f80fd5b506040514781526020015b60405180910390f35b3480156100db575f80fd5b506100ef6100ea3660046104fb565b610188565b005b3480156100fc575f80fd5b506100ef610263565b348015610110575f80fd5b505f546040516001600160a01b0390911681526020016100c7565b348015610136575f80fd5b506100ef6101453660046105f4565b610276565b348015610155575f80fd5b506100ef6101643660046106f6565b610379565b348015610174575f80fd5b506100ef610183366004610716565b6103b6565b610190610480565b804710156101dc5760405162461bcd60e51b8152602060048201526014602482015273496e73756666696369656e742062616c616e636560601b60448201526064015b60405180910390fd5b5f80546040516001600160a01b039091169183156108fc02918491818181858888f19350505050158015610212573d5f803e3d5ffd5b505f546001600160a01b03166001600160a01b03167f7084f5476618d8e60b11ef0d7d3f06914655adb8793e28ff7f018d4c76d505d58260405161025891815260200190565b60405180910390a250565b61026b610480565b6102745f6104ac565b565b61027e610480565b80516001600160a01b031633146102cd5760405162461bcd60e51b81526020600482015260136024820152722ab730baba3437b934bd32b21039b2b73232b960691b60448201526064016101d3565b5f80306001600160a01b0316836060015184604001516040516102f0919061073e565b5f604051808303815f8787f1925050503d805f811461032a576040519150601f19603f3d011682016040523d82523d5f602084013e61032f565b606091505b5091509150816103745760405162461bcd60e51b815260206004820152601060248201526f13dc195c985d1a5bdb8819985a5b195960821b60448201526064016101d3565b505050565b610381610480565b6001600160a01b0381166103aa57604051631e4fbdf760e01b81525f60048201526024016101d3565b6103b3816104ac565b50565b6103be610480565b804710156104055760405162461bcd60e51b8152602060048201526014602482015273496e73756666696369656e742062616c616e636560601b60448201526064016101d3565b6040516001600160a01b0383169082156108fc029083905f818181858888f19350505050158015610438573d5f803e3d5ffd5b50816001600160a01b03167f9a1fd8511a9f728f23ed3cb955318fe1f8b2bc7c3aeea602c7f7ecf959a469398260405161047491815260200190565b60405180910390a25050565b5f546001600160a01b031633146102745760405163118cdaa760e01b81523360048201526024016101d3565b5f80546001600160a01b038381166001600160a01b0319831681178455604051919092169283917f8be0079c531659141344cd1fd0a4f28419497f9722a3daafe3b4186f6b6457e09190a35050565b5f6020828403121561050b575f80fd5b5035919050565b634e487b7160e01b5f52604160045260245ffd5b604051610140810167ffffffffffffffff8111828210171561054a5761054a610512565b60405290565b80356001600160a01b0381168114610566575f80fd5b919050565b5f82601f83011261057a575f80fd5b813567ffffffffffffffff8082111561059557610595610512565b604051601f8301601f19908116603f011681019082821181831017156105bd576105bd610512565b816040528381528660208588010111156105d5575f80fd5b836020870160208301375f602085830101528094505050505092915050565b5f60208284031215610604575f80fd5b813567ffffffffffffffff8082111561061b575f80fd5b90830190610140828603121561062f575f80fd5b610637610526565b61064083610550565b81526020830135602082015260408301358281111561065d575f80fd5b6106698782860161056b565b604083015250606083013560608201526080830135608082015260a083013560a082015260c083013560c082015260e083013560e082015261010080840135838111156106b4575f80fd5b6106c08882870161056b565b82840152505061012080840135838111156106d9575f80fd5b6106e58882870161056b565b918301919091525095945050505050565b5f60208284031215610706575f80fd5b61070f82610550565b9392505050565b5f8060408385031215610727575f80fd5b61073083610550565b946020939093013593505050565b5f82515f5b8181101561075d5760208186018101518583015201610743565b505f92019182525091905056fea2646970667358221220cb60df144979a2001cad8e6ffa5ff74bec349bc8db2e6a645dcc125dce3a09b264736f6c63430008140033a26469706673582212209233bf0cbba7553b0c9357e9e6892dba1ab9c9ec6e2f5547bf73bf36eb31229764736f6c63430008140033",
  "immutableReferences": {},
  "source": "// SPDX-License-Identifier: MIT\npragma solidity ^0.8.0;\n\nimport \"./Wallet.sol\";\n\ncontract WalletFactory {\n    event WalletCreated(address indexed walletAddress, address indexed owner);\n    address public owner;\n    Wallet[] public wallets;\n\n    constructor() {\n        owner = msg.sender;\n    }\n\n    function createWallet() external returns (address) {\n        Wallet newWallet = new Wallet(msg.sender);\n        emit WalletCreated(address(newWallet), msg.sender);\n        return address(newWallet);\n    }\n    function getWallets() public view returns (address[] memory) {\n        address[] memory walletAddresses = new address[](wallets.length);\n        for (uint256 i = 0; i < wallets.length; i++) {\n            walletAddresses[i] = address(wallets[i]);\n        }\n        return walletAddresses;\n    }\n}\n",
  "sourcePath": "/home/sourav/programming/MetaCrafter/eth-advanced/4. Wallet/contracts/Factory.sol",
  "compiler": {
    "name": "solc",
    "version": "0.8.20+commit.a1b79de6.Emscripten.clang"
  },
  "schemaVersion": "3.4.16",
  "updatedAt": "2024-06-18T12:23:39.280Z",
  "devdoc": {
    "kind": "dev",
    "methods": {},
    "version": 1
  },
  "userdoc": {
    "kind": "user",
    "methods": {},
    "version": 1
  }
}