{
  "contractName": "Admin",
  "abi": [
    {
      "inputs": [
        {
          "internalType": "string",
          "name": "_name",
          "type": "string"
        },
        {
          "internalType": "string",
          "name": "_symbol",
          "type": "string"
        },
        {
          "internalType": "uint256",
          "name": "_initialSupply",
          "type": "uint256"
        }
      ],
      "stateMutability": "nonpayable",
      "type": "constructor"
    },
    {
      "inputs": [
        {
          "internalType": "address",
          "name": "spender",
          "type": "address"
        },
        {
          "internalType": "uint256",
          "name": "allowance",
          "type": "uint256"
        },
        {
          "internalType": "uint256",
          "name": "needed",
          "type": "uint256"
        }
      ],
      "name": "ERC20InsufficientAllowance",
      "type": "error"
    },
    {
      "inputs": [
        {
          "internalType": "address",
          "name": "sender",
          "type": "address"
        },
        {
          "internalType": "uint256",
          "name": "balance",
          "type": "uint256"
        },
        {
          "internalType": "uint256",
          "name": "needed",
          "type": "uint256"
        }
      ],
      "name": "ERC20InsufficientBalance",
      "type": "error"
    },
    {
      "inputs": [
        {
          "internalType": "address",
          "name": "approver",
          "type": "address"
        }
      ],
      "name": "ERC20InvalidApprover",
      "type": "error"
    },
    {
      "inputs": [
        {
          "internalType": "address",
          "name": "receiver",
          "type": "address"
        }
      ],
      "name": "ERC20InvalidReceiver",
      "type": "error"
    },
    {
      "inputs": [
        {
          "internalType": "address",
          "name": "sender",
          "type": "address"
        }
      ],
      "name": "ERC20InvalidSender",
      "type": "error"
    },
    {
      "inputs": [
        {
          "internalType": "address",
          "name": "spender",
          "type": "address"
        }
      ],
      "name": "ERC20InvalidSpender",
      "type": "error"
    },
    {
      "inputs": [
        {
          "internalType": "address",
          "name": "owner",
          "type": "address"
        }
      ],
      "name": "OwnableInvalidOwner",
      "type": "error"
    },
    {
      "inputs": [
        {
          "internalType": "address",
          "name": "account",
          "type": "address"
        }
      ],
      "name": "OwnableUnauthorizedAccount",
      "type": "error"
    },
    {
      "anonymous": false,
      "inputs": [
        {
          "indexed": true,
          "internalType": "address",
          "name": "owner",
          "type": "address"
        },
        {
          "indexed": true,
          "internalType": "address",
          "name": "spender",
          "type": "address"
        },
        {
          "indexed": false,
          "internalType": "uint256",
          "name": "value",
          "type": "uint256"
        }
      ],
      "name": "Approval",
      "type": "event"
    },
    {
      "anonymous": false,
      "inputs": [
        {
          "indexed": true,
          "internalType": "address",
          "name": "previousOwner",
          "type": "address"
        },
        {
          "indexed": true,
          "internalType": "address",
          "name": "newOwner",
          "type": "address"
        }
      ],
      "name": "OwnershipTransferred",
      "type": "event"
    },
    {
      "anonymous": false,
      "inputs": [
        {
          "indexed": true,
          "internalType": "address",
          "name": "from",
          "type": "address"
        },
        {
          "indexed": true,
          "internalType": "address",
          "name": "to",
          "type": "address"
        },
        {
          "indexed": false,
          "internalType": "uint256",
          "name": "value",
          "type": "uint256"
        }
      ],
      "name": "Transfer",
      "type": "event"
    },
    {
      "inputs": [
        {
          "internalType": "address",
          "name": "owner",
          "type": "address"
        },
        {
          "internalType": "address",
          "name": "spender",
          "type": "address"
        }
      ],
      "name": "allowance",
      "outputs": [
        {
          "internalType": "uint256",
          "name": "",
          "type": "uint256"
        }
      ],
      "stateMutability": "view",
      "type": "function"
    },
    {
      "inputs": [
        {
          "internalType": "address",
          "name": "spender",
          "type": "address"
        },
        {
          "internalType": "uint256",
          "name": "value",
          "type": "uint256"
        }
      ],
      "name": "approve",
      "outputs": [
        {
          "internalType": "bool",
          "name": "",
          "type": "bool"
        }
      ],
      "stateMutability": "nonpayable",
      "type": "function"
    },
    {
      "inputs": [
        {
          "internalType": "address",
          "name": "account",
          "type": "address"
        }
      ],
      "name": "balanceOf",
      "outputs": [
        {
          "internalType": "uint256",
          "name": "",
          "type": "uint256"
        }
      ],
      "stateMutability": "view",
      "type": "function"
    },
    {
      "inputs": [],
      "name": "decimals",
      "outputs": [
        {
          "internalType": "uint8",
          "name": "",
          "type": "uint8"
        }
      ],
      "stateMutability": "view",
      "type": "function"
    },
    {
      "inputs": [],
      "name": "name",
      "outputs": [
        {
          "internalType": "string",
          "name": "",
          "type": "string"
        }
      ],
      "stateMutability": "view",
      "type": "function"
    },
    {
      "inputs": [],
      "name": "owner",
      "outputs": [
        {
          "internalType": "address",
          "name": "",
          "type": "address"
        }
      ],
      "stateMutability": "view",
      "type": "function"
    },
    {
      "inputs": [],
      "name": "renounceOwnership",
      "outputs": [],
      "stateMutability": "nonpayable",
      "type": "function"
    },
    {
      "inputs": [],
      "name": "symbol",
      "outputs": [
        {
          "internalType": "string",
          "name": "",
          "type": "string"
        }
      ],
      "stateMutability": "view",
      "type": "function"
    },
    {
      "inputs": [],
      "name": "totalSupply",
      "outputs": [
        {
          "internalType": "uint256",
          "name": "",
          "type": "uint256"
        }
      ],
      "stateMutability": "view",
      "type": "function"
    },
    {
      "inputs": [
        {
          "internalType": "address",
          "name": "to",
          "type": "address"
        },
        {
          "internalType": "uint256",
          "name": "value",
          "type": "uint256"
        }
      ],
      "name": "transfer",
      "outputs": [
        {
          "internalType": "bool",
          "name": "",
          "type": "bool"
        }
      ],
      "stateMutability": "nonpayable",
      "type": "function"
    },
    {
      "inputs": [
        {
          "internalType": "address",
          "name": "from",
          "type": "address"
        },
        {
          "internalType": "address",
          "name": "to",
          "type": "address"
        },
        {
          "internalType": "uint256",
          "name": "value",
          "type": "uint256"
        }
      ],
      "name": "transferFrom",
      "outputs": [
        {
          "internalType": "bool",
          "name": "",
          "type": "bool"
        }
      ],
      "stateMutability": "nonpayable",
      "type": "function"
    },
    {
      "inputs": [
        {
          "internalType": "address",
          "name": "newOwner",
          "type": "address"
        }
      ],
      "name": "transferOwnership",
      "outputs": [],
      "stateMutability": "nonpayable",
      "type": "function"
    },
    {
      "inputs": [
        {
          "internalType": "uint256",
          "name": "amount",
          "type": "uint256"
        }
      ],
      "name": "mint",
      "outputs": [],
      "stateMutability": "nonpayable",
      "type": "function"
    },
    {
      "inputs": [
        {
          "internalType": "uint256",
          "name": "amount",
          "type": "uint256"
        }
      ],
      "name": "burn",
      "outputs": [],
      "stateMutability": "nonpayable",
      "type": "function"
    },
    {
      "inputs": [
        {
          "internalType": "address",
          "name": "to",
          "type": "address"
        },
        {
          "internalType": "uint256",
          "name": "amount",
          "type": "uint256"
        }
      ],
      "name": "mintTo",
      "outputs": [],
      "stateMutability": "nonpayable",
      "type": "function"
    },
    {
      "inputs": [
        {
          "internalType": "address",
          "name": "from",
          "type": "address"
        },
        {
          "internalType": "uint256",
          "name": "amount",
          "type": "uint256"
        }
      ],
      "name": "burnFrom",
      "outputs": [],
      "stateMutability": "nonpayable",
      "type": "function"
    }
  ],
  "bytecode": "0x608060405234801562000010575f80fd5b5060405162000f1138038062000f11833981016040819052620000339162000320565b33838360036200004483826200041a565b5060046200005382826200041a565b5050506001600160a01b0381166200008557604051631e4fbdf760e01b81525f60048201526024015b60405180910390fd5b6200009081620000a6565b506200009d3382620000f7565b50505062000508565b600580546001600160a01b038381166001600160a01b0319831681179093556040519116919082907f8be0079c531659141344cd1fd0a4f28419497f9722a3daafe3b4186f6b6457e0905f90a35050565b6001600160a01b038216620001225760405163ec442f0560e01b81525f60048201526024016200007c565b6200012f5f838362000133565b5050565b6001600160a01b03831662000161578060025f828254620001559190620004e2565b90915550620001d39050565b6001600160a01b0383165f9081526020819052604090205481811015620001b55760405163391434e360e21b81526001600160a01b038516600482015260248101829052604481018390526064016200007c565b6001600160a01b0384165f9081526020819052604090209082900390555b6001600160a01b038216620001f1576002805482900390556200020f565b6001600160a01b0382165f9081526020819052604090208054820190555b816001600160a01b0316836001600160a01b03167fddf252ad1be2c89b69c2b068fc378daa952ba7f163c4a11628f55a4df523b3ef836040516200025591815260200190565b60405180910390a3505050565b634e487b7160e01b5f52604160045260245ffd5b5f82601f83011262000286575f80fd5b81516001600160401b0380821115620002a357620002a362000262565b604051601f8301601f19908116603f01168101908282118183101715620002ce57620002ce62000262565b81604052838152602092508683858801011115620002ea575f80fd5b5f91505b838210156200030d5785820183015181830184015290820190620002ee565b5f93810190920192909252949350505050565b5f805f6060848603121562000333575f80fd5b83516001600160401b03808211156200034a575f80fd5b620003588783880162000276565b945060208601519150808211156200036e575f80fd5b506200037d8682870162000276565b925050604084015190509250925092565b600181811c90821680620003a357607f821691505b602082108103620003c257634e487b7160e01b5f52602260045260245ffd5b50919050565b601f82111562000415575f81815260208120601f850160051c81016020861015620003f05750805b601f850160051c820191505b818110156200041157828155600101620003fc565b5050505b505050565b81516001600160401b0381111562000436576200043662000262565b6200044e816200044784546200038e565b84620003c8565b602080601f83116001811462000484575f84156200046c5750858301515b5f19600386901b1c1916600185901b17855562000411565b5f85815260208120601f198616915b82811015620004b45788860151825594840194600190910190840162000493565b5085821015620004d257878501515f19600388901b60f8161c191681555b5050505050600190811b01905550565b808201808211156200050257634e487b7160e01b5f52601160045260245ffd5b92915050565b6109fb80620005165f395ff3fe608060405234801561000f575f80fd5b50600436106100fb575f3560e01c8063715018a611610093578063a0712d6811610063578063a0712d6814610202578063a9059cbb14610215578063dd62ed3e14610228578063f2fde38b1461023b575f80fd5b8063715018a6146101c457806379cc6790146101cc5780638da5cb5b146101df57806395d89b41146101fa575f80fd5b8063313ce567116100ce578063313ce5671461016557806342966c6814610174578063449a52f81461018957806370a082311461019c575f80fd5b806306fdde03146100ff578063095ea7b31461011d57806318160ddd1461014057806323b872dd14610152575b5f80fd5b61010761024e565b6040516101149190610824565b60405180910390f35b61013061012b36600461088a565b6102de565b6040519015158152602001610114565b6002545b604051908152602001610114565b6101306101603660046108b2565b6102f7565b60405160128152602001610114565b6101876101823660046108eb565b61031a565b005b61018761019736600461088a565b61032f565b6101446101aa366004610902565b6001600160a01b03165f9081526020819052604090205490565b610187610345565b6101876101da36600461088a565b610358565b6005546040516001600160a01b039091168152602001610114565b6101076103e7565b6101876102103660046108eb565b6103f6565b61013061022336600461088a565b610408565b610144610236366004610922565b610415565b610187610249366004610902565b61043f565b60606003805461025d90610953565b80601f016020809104026020016040519081016040528092919081815260200182805461028990610953565b80156102d45780601f106102ab576101008083540402835291602001916102d4565b820191905f5260205f20905b8154815290600101906020018083116102b757829003601f168201915b5050505050905090565b5f336102eb818585610479565b60019150505b92915050565b5f33610304858285610486565b61030f8585856104e9565b506001949350505050565b610322610546565b61032c3382610573565b50565b610337610546565b61034182826105a7565b5050565b61034d610546565b6103565f6105db565b565b5f6103638333610415565b9050818110156103c45760405162461bcd60e51b815260206004820152602160248201527f45524332303a20496e73756666696369656e7420746f6b656e20746f206275726044820152603760f91b60648201526084015b60405180910390fd5b6103d883336103d3858561099f565b610479565b6103e28383610573565b505050565b60606004805461025d90610953565b6103fe610546565b61032c33826105a7565b5f336102eb8185856104e9565b6001600160a01b039182165f90815260016020908152604080832093909416825291909152205490565b610447610546565b6001600160a01b03811661047057604051631e4fbdf760e01b81525f60048201526024016103bb565b61032c816105db565b6103e2838383600161062c565b5f6104918484610415565b90505f1981146104e357818110156104d557604051637dc7a0d960e11b81526001600160a01b038416600482015260248101829052604481018390526064016103bb565b6104e384848484035f61062c565b50505050565b6001600160a01b03831661051257604051634b637e8f60e11b81525f60048201526024016103bb565b6001600160a01b03821661053b5760405163ec442f0560e01b81525f60048201526024016103bb565b6103e28383836106fe565b6005546001600160a01b031633146103565760405163118cdaa760e01b81523360048201526024016103bb565b6001600160a01b03821661059c57604051634b637e8f60e11b81525f60048201526024016103bb565b610341825f836106fe565b6001600160a01b0382166105d05760405163ec442f0560e01b81525f60048201526024016103bb565b6103415f83836106fe565b600580546001600160a01b038381166001600160a01b0319831681179093556040519116919082907f8be0079c531659141344cd1fd0a4f28419497f9722a3daafe3b4186f6b6457e0905f90a35050565b6001600160a01b0384166106555760405163e602df0560e01b81525f60048201526024016103bb565b6001600160a01b03831661067e57604051634a1406b160e11b81525f60048201526024016103bb565b6001600160a01b038085165f90815260016020908152604080832093871683529290522082905580156104e357826001600160a01b0316846001600160a01b03167f8c5be1e5ebec7d5bd14f71427d1e84f3dd0314c0f7b2291e5b200ac8c7c3b925846040516106f091815260200190565b60405180910390a350505050565b6001600160a01b038316610728578060025f82825461071d91906109b2565b909155506107989050565b6001600160a01b0383165f908152602081905260409020548181101561077a5760405163391434e360e21b81526001600160a01b038516600482015260248101829052604481018390526064016103bb565b6001600160a01b0384165f9081526020819052604090209082900390555b6001600160a01b0382166107b4576002805482900390556107d2565b6001600160a01b0382165f9081526020819052604090208054820190555b816001600160a01b0316836001600160a01b03167fddf252ad1be2c89b69c2b068fc378daa952ba7f163c4a11628f55a4df523b3ef8360405161081791815260200190565b60405180910390a3505050565b5f6020808352835180828501525f5b8181101561084f57858101830151858201604001528201610833565b505f604082860101526040601f19601f8301168501019250505092915050565b80356001600160a01b0381168114610885575f80fd5b919050565b5f806040838503121561089b575f80fd5b6108a48361086f565b946020939093013593505050565b5f805f606084860312156108c4575f80fd5b6108cd8461086f565b92506108db6020850161086f565b9150604084013590509250925092565b5f602082840312156108fb575f80fd5b5035919050565b5f60208284031215610912575f80fd5b61091b8261086f565b9392505050565b5f8060408385031215610933575f80fd5b61093c8361086f565b915061094a6020840161086f565b90509250929050565b600181811c9082168061096757607f821691505b60208210810361098557634e487b7160e01b5f52602260045260245ffd5b50919050565b634e487b7160e01b5f52601160045260245ffd5b818103818111156102f1576102f161098b565b808201808211156102f1576102f161098b56fea2646970667358221220e68985002cbc7b4ad466ac4f472ab4b2a735cfb60881f783a7b1c0137098180064736f6c63430008140033",
  "immutableReferences": {},
  "source": "// SPDX-License-Identifier: MIT\npragma solidity ^0.8.20;\n\nimport \"@openzeppelin/contracts/token/ERC20/ERC20.sol\";\nimport \"@openzeppelin/contracts/access/Ownable.sol\";\n\ncontract Admin is ERC20 , Ownable {\n    constructor(string memory _name, string memory _symbol , uint _initialSupply) ERC20(_name, _symbol) Ownable(msg.sender) {\n        _mint(msg.sender, _initialSupply);\n    }\n    function mint(uint256 amount) external onlyOwner {\n        _mint(msg.sender, amount);\n    }\n\n    // Function to burn tokens from the sender's account\n    function burn(uint256 amount) external onlyOwner{\n        _burn(msg.sender, amount);\n    }\n    function mintTo(address to, uint256 amount) external onlyOwner {\n        _mint(to, amount);\n    }\n    function burnFrom(address from, uint256 amount) external {\n        uint256 currentAllowance = allowance(from, msg.sender);\n        require(currentAllowance >= amount, \"ERC20: Insufficient token to burn\");\n        _approve(from, msg.sender, currentAllowance - amount);\n        _burn(from, amount);\n    }\n}\n",
  "sourcePath": "/home/sourav/programming/MetaCrafter/eth-advanced/1. Token/contracts/Admin.sol",
  "compiler": {
    "name": "solc",
    "version": "0.8.20+commit.a1b79de6.Emscripten.clang"
  },
  "schemaVersion": "3.4.16",
  "updatedAt": "2024-06-11T16:28:12.747Z",
  "devdoc": {
    "errors": {
      "ERC20InsufficientAllowance(address,uint256,uint256)": [
        {
          "details": "Indicates a failure with the `spender`s `allowance`. Used in transfers.",
          "params": {
            "allowance": "Amount of tokens a `spender` is allowed to operate with.",
            "needed": "Minimum amount required to perform a transfer.",
            "spender": "Address that may be allowed to operate on tokens without being their owner."
          }
        }
      ],
      "ERC20InsufficientBalance(address,uint256,uint256)": [
        {
          "details": "Indicates an error related to the current `balance` of a `sender`. Used in transfers.",
          "params": {
            "balance": "Current balance for the interacting account.",
            "needed": "Minimum amount required to perform a transfer.",
            "sender": "Address whose tokens are being transferred."
          }
        }
      ],
      "ERC20InvalidApprover(address)": [
        {
          "details": "Indicates a failure with the `approver` of a token to be approved. Used in approvals.",
          "params": {
            "approver": "Address initiating an approval operation."
          }
        }
      ],
      "ERC20InvalidReceiver(address)": [
        {
          "details": "Indicates a failure with the token `receiver`. Used in transfers.",
          "params": {
            "receiver": "Address to which tokens are being transferred."
          }
        }
      ],
      "ERC20InvalidSender(address)": [
        {
          "details": "Indicates a failure with the token `sender`. Used in transfers.",
          "params": {
            "sender": "Address whose tokens are being transferred."
          }
        }
      ],
      "ERC20InvalidSpender(address)": [
        {
          "details": "Indicates a failure with the `spender` to be approved. Used in approvals.",
          "params": {
            "spender": "Address that may be allowed to operate on tokens without being their owner."
          }
        }
      ],
      "OwnableInvalidOwner(address)": [
        {
          "details": "The owner is not a valid owner account. (eg. `address(0)`)"
        }
      ],
      "OwnableUnauthorizedAccount(address)": [
        {
          "details": "The caller account is not authorized to perform an operation."
        }
      ]
    },
    "events": {
      "Approval(address,address,uint256)": {
        "details": "Emitted when the allowance of a `spender` for an `owner` is set by a call to {approve}. `value` is the new allowance."
      },
      "Transfer(address,address,uint256)": {
        "details": "Emitted when `value` tokens are moved from one account (`from`) to another (`to`). Note that `value` may be zero."
      }
    },
    "kind": "dev",
    "methods": {
      "allowance(address,address)": {
        "details": "See {IERC20-allowance}."
      },
      "approve(address,uint256)": {
        "details": "See {IERC20-approve}. NOTE: If `value` is the maximum `uint256`, the allowance is not updated on `transferFrom`. This is semantically equivalent to an infinite approval. Requirements: - `spender` cannot be the zero address."
      },
      "balanceOf(address)": {
        "details": "See {IERC20-balanceOf}."
      },
      "decimals()": {
        "details": "Returns the number of decimals used to get its user representation. For example, if `decimals` equals `2`, a balance of `505` tokens should be displayed to a user as `5.05` (`505 / 10 ** 2`). Tokens usually opt for a value of 18, imitating the relationship between Ether and Wei. This is the default value returned by this function, unless it's overridden. NOTE: This information is only used for _display_ purposes: it in no way affects any of the arithmetic of the contract, including {IERC20-balanceOf} and {IERC20-transfer}."
      },
      "name()": {
        "details": "Returns the name of the token."
      },
      "owner()": {
        "details": "Returns the address of the current owner."
      },
      "renounceOwnership()": {
        "details": "Leaves the contract without owner. It will not be possible to call `onlyOwner` functions. Can only be called by the current owner. NOTE: Renouncing ownership will leave the contract without an owner, thereby disabling any functionality that is only available to the owner."
      },
      "symbol()": {
        "details": "Returns the symbol of the token, usually a shorter version of the name."
      },
      "totalSupply()": {
        "details": "See {IERC20-totalSupply}."
      },
      "transfer(address,uint256)": {
        "details": "See {IERC20-transfer}. Requirements: - `to` cannot be the zero address. - the caller must have a balance of at least `value`."
      },
      "transferFrom(address,address,uint256)": {
        "details": "See {IERC20-transferFrom}. Emits an {Approval} event indicating the updated allowance. This is not required by the EIP. See the note at the beginning of {ERC20}. NOTE: Does not update the allowance if the current allowance is the maximum `uint256`. Requirements: - `from` and `to` cannot be the zero address. - `from` must have a balance of at least `value`. - the caller must have allowance for ``from``'s tokens of at least `value`."
      },
      "transferOwnership(address)": {
        "details": "Transfers ownership of the contract to a new account (`newOwner`). Can only be called by the current owner."
      }
    },
    "version": 1
  },
  "userdoc": {
    "kind": "user",
    "methods": {},
    "version": 1
  }
}