{
  "contractName": "Vesting",
  "abi": [
    {
      "inputs": [
        {
          "internalType": "contract Admin",
          "name": "_token",
          "type": "address"
        }
      ],
      "stateMutability": "nonpayable",
      "type": "constructor"
    },
    {
      "inputs": [
        {
          "internalType": "address",
          "name": "owner",
          "type": "address"
        }
      ],
      "name": "OwnableInvalidOwner",
      "type": "error"
    },
    {
      "inputs": [
        {
          "internalType": "address",
          "name": "account",
          "type": "address"
        }
      ],
      "name": "OwnableUnauthorizedAccount",
      "type": "error"
    },
    {
      "anonymous": false,
      "inputs": [
        {
          "indexed": true,
          "internalType": "address",
          "name": "previousOwner",
          "type": "address"
        },
        {
          "indexed": true,
          "internalType": "address",
          "name": "newOwner",
          "type": "address"
        }
      ],
      "name": "OwnershipTransferred",
      "type": "event"
    },
    {
      "anonymous": false,
      "inputs": [
        {
          "indexed": false,
          "internalType": "address",
          "name": "beneficiary",
          "type": "address"
        },
        {
          "indexed": false,
          "internalType": "uint256",
          "name": "amount",
          "type": "uint256"
        }
      ],
      "name": "TokensReleased",
      "type": "event"
    },
    {
      "inputs": [],
      "name": "owner",
      "outputs": [
        {
          "internalType": "address",
          "name": "",
          "type": "address"
        }
      ],
      "stateMutability": "view",
      "type": "function"
    },
    {
      "inputs": [],
      "name": "renounceOwnership",
      "outputs": [],
      "stateMutability": "nonpayable",
      "type": "function"
    },
    {
      "inputs": [],
      "name": "token",
      "outputs": [
        {
          "internalType": "contract Admin",
          "name": "",
          "type": "address"
        }
      ],
      "stateMutability": "view",
      "type": "function"
    },
    {
      "inputs": [
        {
          "internalType": "address",
          "name": "newOwner",
          "type": "address"
        }
      ],
      "name": "transferOwnership",
      "outputs": [],
      "stateMutability": "nonpayable",
      "type": "function"
    },
    {
      "inputs": [
        {
          "internalType": "address",
          "name": "",
          "type": "address"
        }
      ],
      "name": "vestingSchedules",
      "outputs": [
        {
          "internalType": "enum Vesting.UserType",
          "name": "userType",
          "type": "uint8"
        },
        {
          "internalType": "uint256",
          "name": "amount",
          "type": "uint256"
        },
        {
          "internalType": "uint256",
          "name": "releaseTime",
          "type": "uint256"
        },
        {
          "internalType": "bool",
          "name": "claimed",
          "type": "bool"
        }
      ],
      "stateMutability": "view",
      "type": "function"
    },
    {
      "inputs": [
        {
          "internalType": "address",
          "name": "",
          "type": "address"
        }
      ],
      "name": "whitelistedAddresses",
      "outputs": [
        {
          "internalType": "bool",
          "name": "",
          "type": "bool"
        }
      ],
      "stateMutability": "view",
      "type": "function"
    },
    {
      "inputs": [
        {
          "internalType": "address",
          "name": "beneficiary",
          "type": "address"
        }
      ],
      "name": "whitelistAddress",
      "outputs": [],
      "stateMutability": "nonpayable",
      "type": "function"
    },
    {
      "inputs": [
        {
          "internalType": "address",
          "name": "beneficiary",
          "type": "address"
        },
        {
          "internalType": "enum Vesting.UserType",
          "name": "userType",
          "type": "uint8"
        },
        {
          "internalType": "uint256",
          "name": "amount",
          "type": "uint256"
        },
        {
          "internalType": "uint256",
          "name": "releaseTime",
          "type": "uint256"
        }
      ],
      "name": "setVestingSchedule",
      "outputs": [],
      "stateMutability": "nonpayable",
      "type": "function"
    },
    {
      "inputs": [],
      "name": "releaseTokens",
      "outputs": [],
      "stateMutability": "nonpayable",
      "type": "function"
    }
  ],
  "bytecode": "0x608060405234801561000f575f80fd5b506040516109f33803806109f383398101604081905261002e916100d1565b338061005357604051631e4fbdf760e01b81525f600482015260240160405180910390fd5b61005c81610082565b50600180546001600160a01b0319166001600160a01b03929092169190911790556100fe565b5f80546001600160a01b038381166001600160a01b0319831681178455604051919092169283917f8be0079c531659141344cd1fd0a4f28419497f9722a3daafe3b4186f6b6457e09190a35050565b5f602082840312156100e1575f80fd5b81516001600160a01b03811681146100f7575f80fd5b9392505050565b6108e88061010b5f395ff3fe608060405234801561000f575f80fd5b5060043610610090575f3560e01c80638da5cb5b116100635780638da5cb5b146100fb578063a96f86681461011f578063f2fde38b14610127578063fc0c546a1461013a578063fdb20ccb1461014d575f80fd5b806306c933d81461009457806341566585146100cb578063539e2fb9146100e0578063715018a6146100f3575b5f80fd5b6100b66100a23660046107dd565b60036020525f908152604090205460ff1681565b60405190151581526020015b60405180910390f35b6100de6100d93660046107dd565b610198565b005b6100de6100ee3660046107fd565b610230565b6100de610400565b5f546001600160a01b03165b6040516001600160a01b0390911681526020016100c2565b6100de610413565b6100de6101353660046107dd565b61070a565b600154610107906001600160a01b031681565b61018861015b3660046107dd565b600260208190525f9182526040909120805460018201549282015460039092015460ff9182169392911684565b6040516100c29493929190610855565b6101a0610747565b6001600160a01b0381165f9081526003602052604090205460ff161561020d5760405162461bcd60e51b815260206004820152601e60248201527f4164647265737320697320616c72656164792077686974656c6973746564000060448201526064015b60405180910390fd5b6001600160a01b03165f908152600360205260409020805460ff19166001179055565b610238610747565b6001600160a01b0384165f9081526003602052604090205460ff1661029f5760405162461bcd60e51b815260206004820152601a60248201527f41646472657373206973206e6f742077686974656c69737465640000000000006044820152606401610204565b60405180608001604052808460068111156102bc576102bc610841565b8152602080820185905260408083018590525f60609093018390526001600160a01b03881683526002909152902081518154829060ff1916600183600681111561030857610308610841565b0217905550602082015160018281019190915560408084015160028401556060909301516003909201805460ff1916921515929092179091555490516323b872dd60e01b8152336004820152306024820152604481018490526001600160a01b03909116906323b872dd906064016020604051808303815f875af1158015610392573d5f803e3d5ffd5b505050506040513d601f19601f820116820180604052508101906103b69190610893565b6103fa5760405162461bcd60e51b8152602060048201526015602482015274151bdad95b881d1c985b9cd9995c8819985a5b1959605a1b6044820152606401610204565b50505050565b610408610747565b6104115f610773565b565b335f90815260026020908152604080832060039092529091205460ff1661047c5760405162461bcd60e51b815260206004820152601a60248201527f41646472657373206973206e6f742077686974656c69737465640000000000006044820152606401610204565b80600201544210156104d05760405162461bcd60e51b815260206004820152601760248201527f546f6b656e7320617265207374696c6c206c6f636b65640000000000000000006044820152606401610204565b600381015460ff161561051e5760405162461bcd60e51b8152602060048201526016602482015275151bdad95b9cc8185b1c9958591e4818db185a5b595960521b6044820152606401610204565b5f8160010154116105685760405162461bcd60e51b81526020600482015260146024820152734e6f20746f6b656e7320746f2072656c6561736560601b6044820152606401610204565b5f815460ff16600681111561057f5761057f610841565b14806105a057506001815460ff16600681111561059e5761059e610841565b145b806105c057506002815460ff1660068111156105be576105be610841565b145b806105e057506003815460ff1660068111156105de576105de610841565b145b61062c5760405162461bcd60e51b815260206004820152601b60248201527f4e6f7420616c6c6f77656420746f20636c61696d20746f6b656e7300000000006044820152606401610204565b60038101805460ff1916600190811790915580549082015460405163a9059cbb60e01b815233600482015260248101919091526001600160a01b039091169063a9059cbb906044016020604051808303815f875af1158015610690573d5f803e3d5ffd5b505050506040513d601f19601f820116820180604052508101906106b49190610893565b50335f818152600260209081526040808320600190810193909355918401548251938452908301527fc7798891864187665ac6dd119286e44ec13f014527aeeb2b8eb3fd413df93179910160405180910390a150565b610712610747565b6001600160a01b03811661073b57604051631e4fbdf760e01b81525f6004820152602401610204565b61074481610773565b50565b5f546001600160a01b031633146104115760405163118cdaa760e01b8152336004820152602401610204565b5f80546001600160a01b038381166001600160a01b0319831681178455604051919092169283917f8be0079c531659141344cd1fd0a4f28419497f9722a3daafe3b4186f6b6457e09190a35050565b80356001600160a01b03811681146107d8575f80fd5b919050565b5f602082840312156107ed575f80fd5b6107f6826107c2565b9392505050565b5f805f8060808587031215610810575f80fd5b610819856107c2565b935060208501356007811061082c575f80fd5b93969395505050506040820135916060013590565b634e487b7160e01b5f52602160045260245ffd5b608081016007861061087557634e487b7160e01b5f52602160045260245ffd5b94815260208101939093526040830191909152151560609091015290565b5f602082840312156108a3575f80fd5b815180151581146107f6575f80fdfea26469706673582212208d13b32434f619feee566d26c2a9d95edf670c4ccd5785f0e44a7da7b4ade28764736f6c63430008140033",
  "immutableReferences": {},
  "source": "// SPDX-License-Identifier: MIT\npragma solidity ^0.8.20;\n\nimport \"@openzeppelin/contracts/access/Ownable.sol\";\nimport \"./Admin.sol\";\n\ncontract Vesting is Ownable {\n    enum UserType {\n        Founder,\n        Investor,\n        CoFounder,\n        PreSaleBuyer,\n        RegularBuyer,\n        Consumer,\n        Retailer\n    }\n\n    struct VestingSchedule {\n        UserType userType;\n        uint256 amount;\n        uint256 releaseTime;\n        bool claimed;\n    }\n\n    Admin public token;\n    mapping(address => VestingSchedule) public vestingSchedules;\n    mapping(address => bool) public whitelistedAddresses;\n\n    event TokensReleased(address beneficiary, uint256 amount);\n\n    constructor(Admin _token) Ownable(msg.sender) {\n        token = _token;\n    }\n\n    function whitelistAddress(address beneficiary) external onlyOwner {\n        require(!whitelistedAddresses[beneficiary], \"Address is already whitelisted\");\n        whitelistedAddresses[beneficiary] = true;\n    }\n\n    function setVestingSchedule(address beneficiary, UserType userType, uint256 amount, uint256 releaseTime) external onlyOwner {\n        require(whitelistedAddresses[beneficiary], \"Address is not whitelisted\");\n\n        vestingSchedules[beneficiary] = VestingSchedule(userType, amount, releaseTime, false);\n        require(token.transferFrom(msg.sender, address(this), amount), \"Token transfer failed\");\n    }\n\n    function releaseTokens() external {\n        VestingSchedule storage schedule = vestingSchedules[msg.sender];\n        require(whitelistedAddresses[msg.sender], \"Address is not whitelisted\");\n        require(block.timestamp >= schedule.releaseTime, \"Tokens are still locked\");\n        require(!schedule.claimed, \"Tokens already claimed\");\n        require(schedule.amount > 0, \"No tokens to release\");\n\n        require(\n            schedule.userType == UserType.Founder ||\n            schedule.userType == UserType.Investor ||\n            schedule.userType == UserType.CoFounder ||\n            schedule.userType == UserType.PreSaleBuyer,\n            \"Not allowed to claim tokens\"\n        );\n\n        schedule.claimed = true;\n        token.transfer(msg.sender, schedule.amount);\n        vestingSchedules[msg.sender].amount = 0;\n        emit TokensReleased(msg.sender, schedule.amount);\n    }\n}\n",
  "sourcePath": "/home/sourav/programming/MetaCrafter/eth-advanced/1. Token/contracts/Vesting.sol",
  "compiler": {
    "name": "solc",
    "version": "0.8.20+commit.a1b79de6.Emscripten.clang"
  },
  "schemaVersion": "3.4.16",
  "updatedAt": "2024-06-11T19:09:27.230Z",
  "devdoc": {
    "errors": {
      "OwnableInvalidOwner(address)": [
        {
          "details": "The owner is not a valid owner account. (eg. `address(0)`)"
        }
      ],
      "OwnableUnauthorizedAccount(address)": [
        {
          "details": "The caller account is not authorized to perform an operation."
        }
      ]
    },
    "kind": "dev",
    "methods": {
      "owner()": {
        "details": "Returns the address of the current owner."
      },
      "renounceOwnership()": {
        "details": "Leaves the contract without owner. It will not be possible to call `onlyOwner` functions. Can only be called by the current owner. NOTE: Renouncing ownership will leave the contract without an owner, thereby disabling any functionality that is only available to the owner."
      },
      "transferOwnership(address)": {
        "details": "Transfers ownership of the contract to a new account (`newOwner`). Can only be called by the current owner."
      }
    },
    "version": 1
  },
  "userdoc": {
    "kind": "user",
    "methods": {},
    "version": 1
  }
}