{
  "contractName": "CryptoWalletInsurance",
  "abi": [
    {
      "inputs": [
        {
          "internalType": "address",
          "name": "_insured",
          "type": "address"
        }
      ],
      "stateMutability": "nonpayable",
      "type": "constructor"
    },
    {
      "inputs": [
        {
          "internalType": "address",
          "name": "owner",
          "type": "address"
        }
      ],
      "name": "OwnableInvalidOwner",
      "type": "error"
    },
    {
      "inputs": [
        {
          "internalType": "address",
          "name": "account",
          "type": "address"
        }
      ],
      "name": "OwnableUnauthorizedAccount",
      "type": "error"
    },
    {
      "inputs": [],
      "name": "ReentrancyGuardReentrantCall",
      "type": "error"
    },
    {
      "anonymous": false,
      "inputs": [
        {
          "indexed": true,
          "internalType": "address",
          "name": "user",
          "type": "address"
        },
        {
          "indexed": false,
          "internalType": "uint256",
          "name": "amount",
          "type": "uint256"
        }
      ],
      "name": "Claimed",
      "type": "event"
    },
    {
      "anonymous": false,
      "inputs": [
        {
          "indexed": true,
          "internalType": "address",
          "name": "previousOwner",
          "type": "address"
        },
        {
          "indexed": true,
          "internalType": "address",
          "name": "newOwner",
          "type": "address"
        }
      ],
      "name": "OwnershipTransferred",
      "type": "event"
    },
    {
      "anonymous": false,
      "inputs": [
        {
          "indexed": false,
          "internalType": "enum CryptoWalletInsurance.PolicyType",
          "name": "newPolicy",
          "type": "uint8"
        }
      ],
      "name": "PolicyChanged",
      "type": "event"
    },
    {
      "anonymous": false,
      "inputs": [
        {
          "indexed": true,
          "internalType": "address",
          "name": "user",
          "type": "address"
        },
        {
          "indexed": false,
          "internalType": "uint256",
          "name": "amount",
          "type": "uint256"
        }
      ],
      "name": "PricePaid",
      "type": "event"
    },
    {
      "inputs": [],
      "name": "coverageAmount",
      "outputs": [
        {
          "internalType": "uint256",
          "name": "",
          "type": "uint256"
        }
      ],
      "stateMutability": "view",
      "type": "function"
    },
    {
      "inputs": [],
      "name": "insured",
      "outputs": [
        {
          "internalType": "address",
          "name": "",
          "type": "address"
        }
      ],
      "stateMutability": "view",
      "type": "function"
    },
    {
      "inputs": [],
      "name": "lastPaid",
      "outputs": [
        {
          "internalType": "uint256",
          "name": "",
          "type": "uint256"
        }
      ],
      "stateMutability": "view",
      "type": "function"
    },
    {
      "inputs": [],
      "name": "owner",
      "outputs": [
        {
          "internalType": "address",
          "name": "",
          "type": "address"
        }
      ],
      "stateMutability": "view",
      "type": "function"
    },
    {
      "inputs": [],
      "name": "policy",
      "outputs": [
        {
          "internalType": "enum CryptoWalletInsurance.PolicyType",
          "name": "",
          "type": "uint8"
        }
      ],
      "stateMutability": "view",
      "type": "function"
    },
    {
      "inputs": [],
      "name": "price",
      "outputs": [
        {
          "internalType": "uint256",
          "name": "",
          "type": "uint256"
        }
      ],
      "stateMutability": "view",
      "type": "function"
    },
    {
      "inputs": [],
      "name": "renounceOwnership",
      "outputs": [],
      "stateMutability": "nonpayable",
      "type": "function"
    },
    {
      "inputs": [
        {
          "internalType": "address",
          "name": "newOwner",
          "type": "address"
        }
      ],
      "name": "transferOwnership",
      "outputs": [],
      "stateMutability": "nonpayable",
      "type": "function"
    },
    {
      "stateMutability": "payable",
      "type": "receive"
    },
    {
      "inputs": [],
      "name": "getInsured",
      "outputs": [
        {
          "internalType": "address",
          "name": "",
          "type": "address"
        }
      ],
      "stateMutability": "view",
      "type": "function"
    },
    {
      "inputs": [
        {
          "internalType": "enum CryptoWalletInsurance.PolicyType",
          "name": "_policy",
          "type": "uint8"
        }
      ],
      "name": "setPolicy",
      "outputs": [],
      "stateMutability": "nonpayable",
      "type": "function"
    },
    {
      "inputs": [],
      "name": "payPrice",
      "outputs": [],
      "stateMutability": "payable",
      "type": "function"
    },
    {
      "inputs": [],
      "name": "claim",
      "outputs": [],
      "stateMutability": "nonpayable",
      "type": "function"
    }
  ],
  "bytecode": "0x608060405234801561000f575f80fd5b506040516107ff3803806107ff83398101604081905261002e916100e0565b60015f55806001600160a01b03811661006057604051631e4fbdf760e01b81525f600482015260240160405180910390fd5b6100698161008f565b50600280546001600160a01b0319166001600160a01b039290921691909117905561010d565b600180546001600160a01b038381166001600160a01b0319831681179093556040519116919082907f8be0079c531659141344cd1fd0a4f28419497f9722a3daafe3b4186f6b6457e0905f90a35050565b5f602082840312156100f0575f80fd5b81516001600160a01b0381168114610106575f80fd5b9392505050565b6106e58061011a5f395ff3fe6080604052600436106100a8575f3560e01c806374bce0bc1161006257806374bce0bc146101685780638da5cb5b14610187578063a035b1fe146101a4578063c4b8db46146101b9578063eebb1363146101ce578063f2fde38b146101ed575f80fd5b80630505c8c9146100b35780634cbc03d9146100e25780634ce115d8146101135780634e71d92d1461011d57806367c0d00f14610131578063715018a614610154575f80fd5b366100af57005b5f80fd5b3480156100be575f80fd5b506006546100cc9060ff1681565b6040516100d991906105d1565b60405180910390f35b3480156100ed575f80fd5b506002546001600160a01b03165b6040516001600160a01b0390911681526020016100d9565b61011b61020c565b005b348015610128575f80fd5b5061011b6102cf565b34801561013c575f80fd5b5061014660045481565b6040519081526020016100d9565b34801561015f575f80fd5b5061011b6103cd565b348015610173575f80fd5b5061011b6101823660046105f7565b6103de565b348015610192575f80fd5b506001546001600160a01b03166100fb565b3480156101af575f80fd5b5061014660035481565b3480156101c4575f80fd5b5061014660055481565b3480156101d9575f80fd5b506002546100fb906001600160a01b031681565b3480156101f8575f80fd5b5061011b61020736600461061c565b6104da565b6002546001600160a01b0316331461023f5760405162461bcd60e51b815260040161023690610642565b60405180910390fd5b610247610517565b600354341461028a5760405162461bcd60e51b815260206004820152600f60248201526e496e636f727265637420707269636560881b6044820152606401610236565b4260055560405134815233907ffbb78d90c03ede71a52f887ed761d6178e310a2c426206ba0dc64a01691e16f1906020015b60405180910390a26102cd60015f55565b565b6002546001600160a01b031633146102f95760405162461bcd60e51b815260040161023690610642565b610301610517565b6005546103119062278d0061068a565b4211156103515760405162461bcd60e51b815260206004820152600e60248201526d141bdb1a58de48195e1c1a5c995960921b6044820152606401610236565b6002546004546040516001600160a01b039092169181156108fc0291905f818181858888f1935050505015801561038a573d5f803e3d5ffd5b506002546004546040519081526001600160a01b03909116907fd8138f8a3f377c5259ca548e70e4c2de94f129f5a11036a15b69513cba2b426a906020016102bc565b6103d561053f565b6102cd5f61056c565b6002546001600160a01b031633146104085760405162461bcd60e51b815260040161023690610642565b6006805482919060ff191660018381811115610426576104266105bd565b02179055505f60065460ff166001811115610443576104436105bd565b036104635766038d7ea4c6800060035566470de4df820000600455610498565b600160065460ff16600181111561047c5761047c6105bd565b03610498576658d15e1762800060035566b1a2bc2ec500006004555b6006546040517f72a13a5c6bbfd98d3dc4719b767656873b3c13c3139cb44ab7d3002250ba63da916104cf9160ff909116906105d1565b60405180910390a150565b6104e261053f565b6001600160a01b03811661050b57604051631e4fbdf760e01b81525f6004820152602401610236565b6105148161056c565b50565b60025f540361053957604051633ee5aeb560e01b815260040160405180910390fd5b60025f55565b6001546001600160a01b031633146102cd5760405163118cdaa760e01b8152336004820152602401610236565b600180546001600160a01b038381166001600160a01b0319831681179093556040519116919082907f8be0079c531659141344cd1fd0a4f28419497f9722a3daafe3b4186f6b6457e0905f90a35050565b634e487b7160e01b5f52602160045260245ffd5b60208101600283106105f157634e487b7160e01b5f52602160045260245ffd5b91905290565b5f60208284031215610607575f80fd5b813560028110610615575f80fd5b9392505050565b5f6020828403121561062c575f80fd5b81356001600160a01b0381168114610615575f80fd5b60208082526028908201527f4f6e6c792074686520696e73757265642063616e20706572666f726d20746869604082015267399030b1ba34b7b760c11b606082015260800190565b808201808211156106a957634e487b7160e01b5f52601160045260245ffd5b9291505056fea2646970667358221220822e1c166f6a14079eb372591412dd28eabf1b5adaf94d3b47942622d79a219764736f6c63430008140033",
  "immutableReferences": {},
  "source": "// SPDX-License-Identifier: MIT\npragma solidity ^0.8.20;\n\nimport \"@openzeppelin/contracts/access/Ownable.sol\";\nimport \"@openzeppelin/contracts/utils/ReentrancyGuard.sol\";\n\ncontract CryptoWalletInsurance is ReentrancyGuard, Ownable {\n    address public insured;\n    uint256 public price;\n    uint256 public coverageAmount;\n    uint256 public lastPaid;\n\n    enum PolicyType { Basic, Premium }\n    PolicyType public policy; \n\n    event PricePaid(address indexed user, uint256 amount);\n    event Claimed(address indexed user, uint256 amount);\n    event PolicyChanged(PolicyType newPolicy);\n\n    modifier onlyInsured() {\n        require(msg.sender == insured, \"Only the insured can perform this action\");\n        _;\n    }\n\n    constructor(address _insured) Ownable(_insured) {\n        insured = _insured;\n    }\n\n    function getInsured() public view returns (address) {\n        return insured;\n    }\n\n    function setPolicy(PolicyType _policy) public onlyInsured {\n        policy = _policy;\n        if (policy == PolicyType.Basic) {\n            price = 0.001 ether;\n            coverageAmount = 0.02 ether;\n        } else if (policy == PolicyType.Premium) {\n            price = 0.025 ether;\n            coverageAmount = 0.05 ether;\n        }\n        emit PolicyChanged(policy);\n    }\n\n    function payPrice() public payable onlyInsured nonReentrant {\n        require(msg.value == price, \"Incorrect price\");\n        lastPaid = block.timestamp;\n        emit PricePaid(msg.sender, msg.value);\n    }\n\n    function claim() public onlyInsured nonReentrant {\n        require(block.timestamp <= lastPaid + 30 days, \"Policy expired\");\n        payable(insured).transfer(coverageAmount);\n        emit Claimed(insured, coverageAmount);\n    }\n\n    receive() external payable {}\n}\n",
  "sourcePath": "/home/sourav/programming/MetaCrafter/eth-advanced/2. Insurance/contracts/Wallet.sol",
  "compiler": {
    "name": "solc",
    "version": "0.8.20+commit.a1b79de6.Emscripten.clang"
  },
  "schemaVersion": "3.4.16",
  "updatedAt": "2024-06-17T10:35:57.258Z",
  "devdoc": {
    "errors": {
      "OwnableInvalidOwner(address)": [
        {
          "details": "The owner is not a valid owner account. (eg. `address(0)`)"
        }
      ],
      "OwnableUnauthorizedAccount(address)": [
        {
          "details": "The caller account is not authorized to perform an operation."
        }
      ],
      "ReentrancyGuardReentrantCall()": [
        {
          "details": "Unauthorized reentrant call."
        }
      ]
    },
    "kind": "dev",
    "methods": {
      "owner()": {
        "details": "Returns the address of the current owner."
      },
      "renounceOwnership()": {
        "details": "Leaves the contract without owner. It will not be possible to call `onlyOwner` functions. Can only be called by the current owner. NOTE: Renouncing ownership will leave the contract without an owner, thereby disabling any functionality that is only available to the owner."
      },
      "transferOwnership(address)": {
        "details": "Transfers ownership of the contract to a new account (`newOwner`). Can only be called by the current owner."
      }
    },
    "version": 1
  },
  "userdoc": {
    "kind": "user",
    "methods": {},
    "version": 1
  }
}