{
  "contractName": "InsuranceFactory",
  "abi": [
    {
      "inputs": [],
      "stateMutability": "nonpayable",
      "type": "constructor"
    },
    {
      "inputs": [
        {
          "internalType": "address",
          "name": "owner",
          "type": "address"
        }
      ],
      "name": "OwnableInvalidOwner",
      "type": "error"
    },
    {
      "inputs": [
        {
          "internalType": "address",
          "name": "account",
          "type": "address"
        }
      ],
      "name": "OwnableUnauthorizedAccount",
      "type": "error"
    },
    {
      "anonymous": false,
      "inputs": [
        {
          "indexed": true,
          "internalType": "address",
          "name": "user",
          "type": "address"
        },
        {
          "indexed": false,
          "internalType": "address",
          "name": "insuranceContract",
          "type": "address"
        }
      ],
      "name": "CollateralInsuranceCreated",
      "type": "event"
    },
    {
      "anonymous": false,
      "inputs": [
        {
          "indexed": true,
          "internalType": "address",
          "name": "previousOwner",
          "type": "address"
        },
        {
          "indexed": true,
          "internalType": "address",
          "name": "newOwner",
          "type": "address"
        }
      ],
      "name": "OwnershipTransferred",
      "type": "event"
    },
    {
      "anonymous": false,
      "inputs": [
        {
          "indexed": true,
          "internalType": "address",
          "name": "user",
          "type": "address"
        },
        {
          "indexed": false,
          "internalType": "address",
          "name": "insuranceContract",
          "type": "address"
        }
      ],
      "name": "WalletInsuranceCreated",
      "type": "event"
    },
    {
      "inputs": [],
      "name": "owner",
      "outputs": [
        {
          "internalType": "address",
          "name": "",
          "type": "address"
        }
      ],
      "stateMutability": "view",
      "type": "function",
      "constant": true
    },
    {
      "inputs": [],
      "name": "renounceOwnership",
      "outputs": [],
      "stateMutability": "nonpayable",
      "type": "function"
    },
    {
      "inputs": [
        {
          "internalType": "address",
          "name": "newOwner",
          "type": "address"
        }
      ],
      "name": "transferOwnership",
      "outputs": [],
      "stateMutability": "nonpayable",
      "type": "function"
    },
    {
      "inputs": [],
      "name": "createWalletInsurance",
      "outputs": [],
      "stateMutability": "nonpayable",
      "type": "function"
    },
    {
      "inputs": [],
      "name": "createCollateralInsurance",
      "outputs": [],
      "stateMutability": "nonpayable",
      "type": "function"
    }
  ],
  "bytecode": "0x608060405234801561000f575f80fd5b50338061003557604051631e4fbdf760e01b81525f600482015260240160405180910390fd5b61003e81610044565b50610093565b5f80546001600160a01b038381166001600160a01b0319831681178455604051919092169283917f8be0079c531659141344cd1fd0a4f28419497f9722a3daafe3b4186f6b6457e09190a35050565b61133d806100a05f395ff3fe608060405234801561000f575f80fd5b5060043610610055575f3560e01c8063715018a6146100595780638da5cb5b146100635780639373c44514610081578063e73faaaa14610089578063f2fde38b14610091575b5f80fd5b6100616100a4565b005b5f54604080516001600160a01b039092168252519081900360200190f35b6100616100b7565b610061610139565b61006161009f36600461028a565b6101b3565b6100ac6101f5565b6100b55f610221565b565b5f3390505f816040516100c990610270565b6001600160a01b039091168152602001604051809103905ff0801580156100f2573d5f803e3d5ffd5b506040516001600160a01b038216815290915033907f1e0b8eaf695896b206f251c69ce62078a74320d12287968695e36e4bf8b41ee4906020015b60405180910390a25050565b5f3390505f8160405161014b9061027d565b6001600160a01b039091168152602001604051809103905ff080158015610174573d5f803e3d5ffd5b506040516001600160a01b038216815290915033907fa3c19013232328fa129e43cb3c1a03233e6c7bd65be78fa8e5d9c30d0742fda19060200161012d565b6101bb6101f5565b6001600160a01b0381166101e957604051631e4fbdf760e01b81525f60048201526024015b60405180910390fd5b6101f281610221565b50565b5f546001600160a01b031633146100b55760405163118cdaa760e01b81523360048201526024016101e0565b5f80546001600160a01b038381166001600160a01b0319831681178455604051919092169283917f8be0079c531659141344cd1fd0a4f28419497f9722a3daafe3b4186f6b6457e09190a35050565b6107ff806102b883390190565b61085180610ab783390190565b5f6020828403121561029a575f80fd5b81356001600160a01b03811681146102b0575f80fd5b939250505056fe608060405234801561000f575f80fd5b506040516107ff3803806107ff83398101604081905261002e916100e0565b60015f55806001600160a01b03811661006057604051631e4fbdf760e01b81525f600482015260240160405180910390fd5b6100698161008f565b50600280546001600160a01b0319166001600160a01b039290921691909117905561010d565b600180546001600160a01b038381166001600160a01b0319831681179093556040519116919082907f8be0079c531659141344cd1fd0a4f28419497f9722a3daafe3b4186f6b6457e0905f90a35050565b5f602082840312156100f0575f80fd5b81516001600160a01b0381168114610106575f80fd5b9392505050565b6106e58061011a5f395ff3fe6080604052600436106100a8575f3560e01c806374bce0bc1161006257806374bce0bc146101685780638da5cb5b14610187578063a035b1fe146101a4578063c4b8db46146101b9578063eebb1363146101ce578063f2fde38b146101ed575f80fd5b80630505c8c9146100b35780634cbc03d9146100e25780634ce115d8146101135780634e71d92d1461011d57806367c0d00f14610131578063715018a614610154575f80fd5b366100af57005b5f80fd5b3480156100be575f80fd5b506006546100cc9060ff1681565b6040516100d991906105d1565b60405180910390f35b3480156100ed575f80fd5b506002546001600160a01b03165b6040516001600160a01b0390911681526020016100d9565b61011b61020c565b005b348015610128575f80fd5b5061011b6102cf565b34801561013c575f80fd5b5061014660045481565b6040519081526020016100d9565b34801561015f575f80fd5b5061011b6103cd565b348015610173575f80fd5b5061011b6101823660046105f7565b6103de565b348015610192575f80fd5b506001546001600160a01b03166100fb565b3480156101af575f80fd5b5061014660035481565b3480156101c4575f80fd5b5061014660055481565b3480156101d9575f80fd5b506002546100fb906001600160a01b031681565b3480156101f8575f80fd5b5061011b61020736600461061c565b6104da565b6002546001600160a01b0316331461023f5760405162461bcd60e51b815260040161023690610642565b60405180910390fd5b610247610517565b600354341461028a5760405162461bcd60e51b815260206004820152600f60248201526e496e636f727265637420707269636560881b6044820152606401610236565b4260055560405134815233907ffbb78d90c03ede71a52f887ed761d6178e310a2c426206ba0dc64a01691e16f1906020015b60405180910390a26102cd60015f55565b565b6002546001600160a01b031633146102f95760405162461bcd60e51b815260040161023690610642565b610301610517565b6005546103119062278d0061068a565b4211156103515760405162461bcd60e51b815260206004820152600e60248201526d141bdb1a58de48195e1c1a5c995960921b6044820152606401610236565b6002546004546040516001600160a01b039092169181156108fc0291905f818181858888f1935050505015801561038a573d5f803e3d5ffd5b506002546004546040519081526001600160a01b03909116907fd8138f8a3f377c5259ca548e70e4c2de94f129f5a11036a15b69513cba2b426a906020016102bc565b6103d561053f565b6102cd5f61056c565b6002546001600160a01b031633146104085760405162461bcd60e51b815260040161023690610642565b6006805482919060ff191660018381811115610426576104266105bd565b02179055505f60065460ff166001811115610443576104436105bd565b036104635766038d7ea4c6800060035566470de4df820000600455610498565b600160065460ff16600181111561047c5761047c6105bd565b03610498576658d15e1762800060035566b1a2bc2ec500006004555b6006546040517f72a13a5c6bbfd98d3dc4719b767656873b3c13c3139cb44ab7d3002250ba63da916104cf9160ff909116906105d1565b60405180910390a150565b6104e261053f565b6001600160a01b03811661050b57604051631e4fbdf760e01b81525f6004820152602401610236565b6105148161056c565b50565b60025f540361053957604051633ee5aeb560e01b815260040160405180910390fd5b60025f55565b6001546001600160a01b031633146102cd5760405163118cdaa760e01b8152336004820152602401610236565b600180546001600160a01b038381166001600160a01b0319831681179093556040519116919082907f8be0079c531659141344cd1fd0a4f28419497f9722a3daafe3b4186f6b6457e0905f90a35050565b634e487b7160e01b5f52602160045260245ffd5b60208101600283106105f157634e487b7160e01b5f52602160045260245ffd5b91905290565b5f60208284031215610607575f80fd5b813560028110610615575f80fd5b9392505050565b5f6020828403121561062c575f80fd5b81356001600160a01b0381168114610615575f80fd5b60208082526028908201527f4f6e6c792074686520696e73757265642063616e20706572666f726d20746869604082015267399030b1ba34b7b760c11b606082015260800190565b808201808211156106a957634e487b7160e01b5f52601160045260245ffd5b9291505056fea2646970667358221220822e1c166f6a14079eb372591412dd28eabf1b5adaf94d3b47942622d79a219764736f6c63430008140033608060405234801561000f575f80fd5b5060405161085138038061085183398101604081905261002e916100e0565b60015f55806001600160a01b03811661006057604051631e4fbdf760e01b81525f600482015260240160405180910390fd5b6100698161008f565b50600280546001600160a01b0319166001600160a01b039290921691909117905561010d565b600180546001600160a01b038381166001600160a01b0319831681179093556040519116919082907f8be0079c531659141344cd1fd0a4f28419497f9722a3daafe3b4186f6b6457e0905f90a35050565b5f602082840312156100f0575f80fd5b81516001600160a01b0381168114610106575f80fd5b9392505050565b6107378061011a5f395ff3fe60806040526004361061009d575f3560e01c806374bce0bc1161006257806374bce0bc146101375780638da5cb5b14610156578063a035b1fe14610187578063c4b8db461461019c578063eebb1363146101b1578063f2fde38b146101d0575f80fd5b80630505c8c9146100a8578063379607f5146100d75780634ce115d8146100f857806367c0d00f14610100578063715018a614610123575f80fd5b366100a457005b5f80fd5b3480156100b3575f80fd5b506006546100c19060ff1681565b6040516100ce919061060c565b60405180910390f35b3480156100e2575f80fd5b506100f66100f1366004610632565b6101ef565b005b6100f6610352565b34801561010b575f80fd5b5061011560045481565b6040519081526020016100ce565b34801561012e575f80fd5b506100f661040b565b348015610142575f80fd5b506100f6610151366004610649565b61041c565b348015610161575f80fd5b506001546001600160a01b03165b6040516001600160a01b0390911681526020016100ce565b348015610192575f80fd5b5061011560035481565b3480156101a7575f80fd5b5061011560055481565b3480156101bc575f80fd5b5060025461016f906001600160a01b031681565b3480156101db575f80fd5b506100f66101ea36600461066e565b610518565b6002546001600160a01b031633146102225760405162461bcd60e51b815260040161021990610694565b60405180910390fd5b61022a610552565b60055461023a9062278d006106dc565b42111561027a5760405162461bcd60e51b815260206004820152600e60248201526d141bdb1a58de48195e1c1a5c995960921b6044820152606401610219565b6004548111156102cc5760405162461bcd60e51b815260206004820152601c60248201527f4c6f616e20616d6f756e74206578636565647320636f766572616765000000006044820152606401610219565b6002546040516001600160a01b039091169082156108fc029083905f818181858888f19350505050158015610303573d5f803e3d5ffd5b506002546040518281526001600160a01b03909116907fd8138f8a3f377c5259ca548e70e4c2de94f129f5a11036a15b69513cba2b426a9060200160405180910390a261034f60015f55565b50565b6002546001600160a01b0316331461037c5760405162461bcd60e51b815260040161021990610694565b610384610552565b60035434146103c75760405162461bcd60e51b815260206004820152600f60248201526e496e636f727265637420707269636560881b6044820152606401610219565b4260055560405134815233907ffbb78d90c03ede71a52f887ed761d6178e310a2c426206ba0dc64a01691e16f19060200160405180910390a261040960015f55565b565b61041361057a565b6104095f6105a7565b6002546001600160a01b031633146104465760405162461bcd60e51b815260040161021990610694565b6006805482919060ff191660018381811115610464576104646105f8565b02179055505f60065460ff166001811115610481576104816105f8565b036104a15766038d7ea4c6800060035566470de4df8200006004556104d6565b600160065460ff1660018111156104ba576104ba6105f8565b036104d6576658d15e1762800060035566b1a2bc2ec500006004555b6006546040517f72a13a5c6bbfd98d3dc4719b767656873b3c13c3139cb44ab7d3002250ba63da9161050d9160ff9091169061060c565b60405180910390a150565b61052061057a565b6001600160a01b03811661054957604051631e4fbdf760e01b81525f6004820152602401610219565b61034f816105a7565b60025f540361057457604051633ee5aeb560e01b815260040160405180910390fd5b60025f55565b6001546001600160a01b031633146104095760405163118cdaa760e01b8152336004820152602401610219565b600180546001600160a01b038381166001600160a01b0319831681179093556040519116919082907f8be0079c531659141344cd1fd0a4f28419497f9722a3daafe3b4186f6b6457e0905f90a35050565b634e487b7160e01b5f52602160045260245ffd5b602081016002831061062c57634e487b7160e01b5f52602160045260245ffd5b91905290565b5f60208284031215610642575f80fd5b5035919050565b5f60208284031215610659575f80fd5b813560028110610667575f80fd5b9392505050565b5f6020828403121561067e575f80fd5b81356001600160a01b0381168114610667575f80fd5b60208082526028908201527f4f6e6c792074686520696e73757265642063616e20706572666f726d20746869604082015267399030b1ba34b7b760c11b606082015260800190565b808201808211156106fb57634e487b7160e01b5f52601160045260245ffd5b9291505056fea2646970667358221220a3b807b918a383ed9ad48286f8e340500d372d647b0d1841d0f0d6b3d1e2374b64736f6c63430008140033a2646970667358221220ff164871284f84f3748c67602aa4298f3a1ac3aed07bbea41d9994a005b43c6e64736f6c63430008140033",
  "immutableReferences": {},
  "source": "// SPDX-License-Identifier: MIT\npragma solidity ^0.8.20;\n\nimport \"./Wallet.sol\";\nimport \"./Collateral.sol\";\nimport \"@openzeppelin/contracts/access/Ownable.sol\";\n\ncontract InsuranceFactory is Ownable {\n    event WalletInsuranceCreated(address indexed user, address insuranceContract);\n    event CollateralInsuranceCreated(address indexed user, address insuranceContract);\n    \n    constructor() Ownable(msg.sender) {}\n\n    function createWalletInsurance() external {\n        address _insured = msg.sender;\n        CryptoWalletInsurance walletInsurance = new CryptoWalletInsurance(_insured);\n        emit WalletInsuranceCreated(msg.sender, address(walletInsurance));\n    }\n\n    function createCollateralInsurance() external {\n        address insured = msg.sender;\n        CollateralProtectionInsurance collateralInsurance = new CollateralProtectionInsurance(insured);\n        emit CollateralInsuranceCreated(msg.sender, address(collateralInsurance));\n    }\n}\n",
  "sourcePath": "/home/sourav/programming/MetaCrafter/eth-advanced/2. Insurance/contracts/InsuranceFactory.sol",
  "compiler": {
    "name": "solc",
    "version": "0.8.20+commit.a1b79de6.Emscripten.clang"
  },
  "schemaVersion": "3.4.16",
  "updatedAt": "2024-06-17T10:37:09.208Z",
  "networkType": "ethereum",
  "devdoc": {
    "errors": {
      "OwnableInvalidOwner(address)": [
        {
          "details": "The owner is not a valid owner account. (eg. `address(0)`)"
        }
      ],
      "OwnableUnauthorizedAccount(address)": [
        {
          "details": "The caller account is not authorized to perform an operation."
        }
      ]
    },
    "kind": "dev",
    "methods": {
      "owner()": {
        "details": "Returns the address of the current owner."
      },
      "renounceOwnership()": {
        "details": "Leaves the contract without owner. It will not be possible to call `onlyOwner` functions. Can only be called by the current owner. NOTE: Renouncing ownership will leave the contract without an owner, thereby disabling any functionality that is only available to the owner."
      },
      "transferOwnership(address)": {
        "details": "Transfers ownership of the contract to a new account (`newOwner`). Can only be called by the current owner."
      }
    },
    "version": 1
  },
  "userdoc": {
    "kind": "user",
    "methods": {},
    "version": 1
  }
}